{
  "_format": "hh-sol-artifact-1",
  "contractName": "GovToken",
  "sourceName": "contracts/Token.sol",
  "abi": [
    {
      "inputs": [
        {
          "internalType": "address",
          "name": "initialOwner",
          "type": "address"
        }
      ],
      "stateMutability": "nonpayable",
      "type": "constructor"
    },
    {
      "inputs": [],
      "name": "CheckpointUnorderedInsertion",
      "type": "error"
    },
    {
      "inputs": [],
      "name": "ECDSAInvalidSignature",
      "type": "error"
    },
    {
      "inputs": [
        {
          "internalType": "uint256",
          "name": "length",
          "type": "uint256"
        }
      ],
      "name": "ECDSAInvalidSignatureLength",
      "type": "error"
    },
    {
      "inputs": [
        {
          "internalType": "bytes32",
          "name": "s",
          "type": "bytes32"
        }
      ],
      "name": "ECDSAInvalidSignatureS",
      "type": "error"
    },
    {
      "inputs": [
        {
          "internalType": "uint256",
          "name": "increasedSupply",
          "type": "uint256"
        },
        {
          "internalType": "uint256",
          "name": "cap",
          "type": "uint256"
        }
      ],
      "name": "ERC20ExceededSafeSupply",
      "type": "error"
    },
    {
      "inputs": [
        {
          "internalType": "address",
          "name": "spender",
          "type": "address"
        },
        {
          "internalType": "uint256",
          "name": "allowance",
          "type": "uint256"
        },
        {
          "internalType": "uint256",
          "name": "needed",
          "type": "uint256"
        }
      ],
      "name": "ERC20InsufficientAllowance",
      "type": "error"
    },
    {
      "inputs": [
        {
          "internalType": "address",
          "name": "sender",
          "type": "address"
        },
        {
          "internalType": "uint256",
          "name": "balance",
          "type": "uint256"
        },
        {
          "internalType": "uint256",
          "name": "needed",
          "type": "uint256"
        }
      ],
      "name": "ERC20InsufficientBalance",
      "type": "error"
    },
    {
      "inputs": [
        {
          "internalType": "address",
          "name": "approver",
          "type": "address"
        }
      ],
      "name": "ERC20InvalidApprover",
      "type": "error"
    },
    {
      "inputs": [
        {
          "internalType": "address",
          "name": "receiver",
          "type": "address"
        }
      ],
      "name": "ERC20InvalidReceiver",
      "type": "error"
    },
    {
      "inputs": [
        {
          "internalType": "address",
          "name": "sender",
          "type": "address"
        }
      ],
      "name": "ERC20InvalidSender",
      "type": "error"
    },
    {
      "inputs": [
        {
          "internalType": "address",
          "name": "spender",
          "type": "address"
        }
      ],
      "name": "ERC20InvalidSpender",
      "type": "error"
    },
    {
      "inputs": [
        {
          "internalType": "uint256",
          "name": "deadline",
          "type": "uint256"
        }
      ],
      "name": "ERC2612ExpiredSignature",
      "type": "error"
    },
    {
      "inputs": [
        {
          "internalType": "address",
          "name": "signer",
          "type": "address"
        },
        {
          "internalType": "address",
          "name": "owner",
          "type": "address"
        }
      ],
      "name": "ERC2612InvalidSigner",
      "type": "error"
    },
    {
      "inputs": [
        {
          "internalType": "uint256",
          "name": "timepoint",
          "type": "uint256"
        },
        {
          "internalType": "uint48",
          "name": "clock",
          "type": "uint48"
        }
      ],
      "name": "ERC5805FutureLookup",
      "type": "error"
    },
    {
      "inputs": [],
      "name": "ERC6372InconsistentClock",
      "type": "error"
    },
    {
      "inputs": [
        {
          "internalType": "address",
          "name": "account",
          "type": "address"
        },
        {
          "internalType": "uint256",
          "name": "currentNonce",
          "type": "uint256"
        }
      ],
      "name": "InvalidAccountNonce",
      "type": "error"
    },
    {
      "inputs": [],
      "name": "InvalidShortString",
      "type": "error"
    },
    {
      "inputs": [
        {
          "internalType": "address",
          "name": "owner",
          "type": "address"
        }
      ],
      "name": "OwnableInvalidOwner",
      "type": "error"
    },
    {
      "inputs": [
        {
          "internalType": "address",
          "name": "account",
          "type": "address"
        }
      ],
      "name": "OwnableUnauthorizedAccount",
      "type": "error"
    },
    {
      "inputs": [
        {
          "internalType": "uint8",
          "name": "bits",
          "type": "uint8"
        },
        {
          "internalType": "uint256",
          "name": "value",
          "type": "uint256"
        }
      ],
      "name": "SafeCastOverflowedUintDowncast",
      "type": "error"
    },
    {
      "inputs": [
        {
          "internalType": "string",
          "name": "str",
          "type": "string"
        }
      ],
      "name": "StringTooLong",
      "type": "error"
    },
    {
      "inputs": [
        {
          "internalType": "uint256",
          "name": "expiry",
          "type": "uint256"
        }
      ],
      "name": "VotesExpiredSignature",
      "type": "error"
    },
    {
      "anonymous": false,
      "inputs": [
        {
          "indexed": true,
          "internalType": "address",
          "name": "owner",
          "type": "address"
        },
        {
          "indexed": true,
          "internalType": "address",
          "name": "spender",
          "type": "address"
        },
        {
          "indexed": false,
          "internalType": "uint256",
          "name": "value",
          "type": "uint256"
        }
      ],
      "name": "Approval",
      "type": "event"
    },
    {
      "anonymous": false,
      "inputs": [
        {
          "indexed": true,
          "internalType": "address",
          "name": "delegator",
          "type": "address"
        },
        {
          "indexed": true,
          "internalType": "address",
          "name": "fromDelegate",
          "type": "address"
        },
        {
          "indexed": true,
          "internalType": "address",
          "name": "toDelegate",
          "type": "address"
        }
      ],
      "name": "DelegateChanged",
      "type": "event"
    },
    {
      "anonymous": false,
      "inputs": [
        {
          "indexed": true,
          "internalType": "address",
          "name": "delegate",
          "type": "address"
        },
        {
          "indexed": false,
          "internalType": "uint256",
          "name": "previousVotes",
          "type": "uint256"
        },
        {
          "indexed": false,
          "internalType": "uint256",
          "name": "newVotes",
          "type": "uint256"
        }
      ],
      "name": "DelegateVotesChanged",
      "type": "event"
    },
    {
      "anonymous": false,
      "inputs": [],
      "name": "EIP712DomainChanged",
      "type": "event"
    },
    {
      "anonymous": false,
      "inputs": [
        {
          "indexed": true,
          "internalType": "address",
          "name": "previousOwner",
          "type": "address"
        },
        {
          "indexed": true,
          "internalType": "address",
          "name": "newOwner",
          "type": "address"
        }
      ],
      "name": "OwnershipTransferred",
      "type": "event"
    },
    {
      "anonymous": false,
      "inputs": [
        {
          "indexed": true,
          "internalType": "address",
          "name": "from",
          "type": "address"
        },
        {
          "indexed": true,
          "internalType": "address",
          "name": "to",
          "type": "address"
        },
        {
          "indexed": false,
          "internalType": "uint256",
          "name": "value",
          "type": "uint256"
        }
      ],
      "name": "Transfer",
      "type": "event"
    },
    {
      "inputs": [],
      "name": "CLOCK_MODE",
      "outputs": [
        {
          "internalType": "string",
          "name": "",
          "type": "string"
        }
      ],
      "stateMutability": "view",
      "type": "function"
    },
    {
      "inputs": [],
      "name": "DOMAIN_SEPARATOR",
      "outputs": [
        {
          "internalType": "bytes32",
          "name": "",
          "type": "bytes32"
        }
      ],
      "stateMutability": "view",
      "type": "function"
    },
    {
      "inputs": [
        {
          "internalType": "address",
          "name": "owner",
          "type": "address"
        },
        {
          "internalType": "address",
          "name": "spender",
          "type": "address"
        }
      ],
      "name": "allowance",
      "outputs": [
        {
          "internalType": "uint256",
          "name": "",
          "type": "uint256"
        }
      ],
      "stateMutability": "view",
      "type": "function"
    },
    {
      "inputs": [
        {
          "internalType": "address",
          "name": "spender",
          "type": "address"
        },
        {
          "internalType": "uint256",
          "name": "value",
          "type": "uint256"
        }
      ],
      "name": "approve",
      "outputs": [
        {
          "internalType": "bool",
          "name": "",
          "type": "bool"
        }
      ],
      "stateMutability": "nonpayable",
      "type": "function"
    },
    {
      "inputs": [
        {
          "internalType": "address",
          "name": "account",
          "type": "address"
        }
      ],
      "name": "balanceOf",
      "outputs": [
        {
          "internalType": "uint256",
          "name": "",
          "type": "uint256"
        }
      ],
      "stateMutability": "view",
      "type": "function"
    },
    {
      "inputs": [
        {
          "internalType": "address",
          "name": "account",
          "type": "address"
        },
        {
          "internalType": "uint32",
          "name": "pos",
          "type": "uint32"
        }
      ],
      "name": "checkpoints",
      "outputs": [
        {
          "components": [
            {
              "internalType": "uint48",
              "name": "_key",
              "type": "uint48"
            },
            {
              "internalType": "uint208",
              "name": "_value",
              "type": "uint208"
            }
          ],
          "internalType": "struct Checkpoints.Checkpoint208",
          "name": "",
          "type": "tuple"
        }
      ],
      "stateMutability": "view",
      "type": "function"
    },
    {
      "inputs": [],
      "name": "clock",
      "outputs": [
        {
          "internalType": "uint48",
          "name": "",
          "type": "uint48"
        }
      ],
      "stateMutability": "view",
      "type": "function"
    },
    {
      "inputs": [],
      "name": "decimals",
      "outputs": [
        {
          "internalType": "uint8",
          "name": "",
          "type": "uint8"
        }
      ],
      "stateMutability": "view",
      "type": "function"
    },
    {
      "inputs": [
        {
          "internalType": "address",
          "name": "delegatee",
          "type": "address"
        }
      ],
      "name": "delegate",
      "outputs": [],
      "stateMutability": "nonpayable",
      "type": "function"
    },
    {
      "inputs": [
        {
          "internalType": "address",
          "name": "delegatee",
          "type": "address"
        },
        {
          "internalType": "uint256",
          "name": "nonce",
          "type": "uint256"
        },
        {
          "internalType": "uint256",
          "name": "expiry",
          "type": "uint256"
        },
        {
          "internalType": "uint8",
          "name": "v",
          "type": "uint8"
        },
        {
          "internalType": "bytes32",
          "name": "r",
          "type": "bytes32"
        },
        {
          "internalType": "bytes32",
          "name": "s",
          "type": "bytes32"
        }
      ],
      "name": "delegateBySig",
      "outputs": [],
      "stateMutability": "nonpayable",
      "type": "function"
    },
    {
      "inputs": [
        {
          "internalType": "address",
          "name": "account",
          "type": "address"
        }
      ],
      "name": "delegates",
      "outputs": [
        {
          "internalType": "address",
          "name": "",
          "type": "address"
        }
      ],
      "stateMutability": "view",
      "type": "function"
    },
    {
      "inputs": [],
      "name": "eip712Domain",
      "outputs": [
        {
          "internalType": "bytes1",
          "name": "fields",
          "type": "bytes1"
        },
        {
          "internalType": "string",
          "name": "name",
          "type": "string"
        },
        {
          "internalType": "string",
          "name": "version",
          "type": "string"
        },
        {
          "internalType": "uint256",
          "name": "chainId",
          "type": "uint256"
        },
        {
          "internalType": "address",
          "name": "verifyingContract",
          "type": "address"
        },
        {
          "internalType": "bytes32",
          "name": "salt",
          "type": "bytes32"
        },
        {
          "internalType": "uint256[]",
          "name": "extensions",
          "type": "uint256[]"
        }
      ],
      "stateMutability": "view",
      "type": "function"
    },
    {
      "inputs": [],
      "name": "faucet",
      "outputs": [],
      "stateMutability": "nonpayable",
      "type": "function"
    },
    {
      "inputs": [
        {
          "internalType": "uint256",
          "name": "timepoint",
          "type": "uint256"
        }
      ],
      "name": "getPastTotalSupply",
      "outputs": [
        {
          "internalType": "uint256",
          "name": "",
          "type": "uint256"
        }
      ],
      "stateMutability": "view",
      "type": "function"
    },
    {
      "inputs": [
        {
          "internalType": "address",
          "name": "account",
          "type": "address"
        },
        {
          "internalType": "uint256",
          "name": "timepoint",
          "type": "uint256"
        }
      ],
      "name": "getPastVotes",
      "outputs": [
        {
          "internalType": "uint256",
          "name": "",
          "type": "uint256"
        }
      ],
      "stateMutability": "view",
      "type": "function"
    },
    {
      "inputs": [
        {
          "internalType": "address",
          "name": "account",
          "type": "address"
        }
      ],
      "name": "getVotes",
      "outputs": [
        {
          "internalType": "uint256",
          "name": "",
          "type": "uint256"
        }
      ],
      "stateMutability": "view",
      "type": "function"
    },
    {
      "inputs": [
        {
          "internalType": "address",
          "name": "to",
          "type": "address"
        },
        {
          "internalType": "uint256",
          "name": "amount",
          "type": "uint256"
        }
      ],
      "name": "mint",
      "outputs": [],
      "stateMutability": "nonpayable",
      "type": "function"
    },
    {
      "inputs": [],
      "name": "name",
      "outputs": [
        {
          "internalType": "string",
          "name": "",
          "type": "string"
        }
      ],
      "stateMutability": "view",
      "type": "function"
    },
    {
      "inputs": [
        {
          "internalType": "address",
          "name": "owner",
          "type": "address"
        }
      ],
      "name": "nonces",
      "outputs": [
        {
          "internalType": "uint256",
          "name": "",
          "type": "uint256"
        }
      ],
      "stateMutability": "view",
      "type": "function"
    },
    {
      "inputs": [
        {
          "internalType": "address",
          "name": "account",
          "type": "address"
        }
      ],
      "name": "numCheckpoints",
      "outputs": [
        {
          "internalType": "uint32",
          "name": "",
          "type": "uint32"
        }
      ],
      "stateMutability": "view",
      "type": "function"
    },
    {
      "inputs": [],
      "name": "owner",
      "outputs": [
        {
          "internalType": "address",
          "name": "",
          "type": "address"
        }
      ],
      "stateMutability": "view",
      "type": "function"
    },
    {
      "inputs": [
        {
          "internalType": "address",
          "name": "owner",
          "type": "address"
        },
        {
          "internalType": "address",
          "name": "spender",
          "type": "address"
        },
        {
          "internalType": "uint256",
          "name": "value",
          "type": "uint256"
        },
        {
          "internalType": "uint256",
          "name": "deadline",
          "type": "uint256"
        },
        {
          "internalType": "uint8",
          "name": "v",
          "type": "uint8"
        },
        {
          "internalType": "bytes32",
          "name": "r",
          "type": "bytes32"
        },
        {
          "internalType": "bytes32",
          "name": "s",
          "type": "bytes32"
        }
      ],
      "name": "permit",
      "outputs": [],
      "stateMutability": "nonpayable",
      "type": "function"
    },
    {
      "inputs": [],
      "name": "renounceOwnership",
      "outputs": [],
      "stateMutability": "nonpayable",
      "type": "function"
    },
    {
      "inputs": [],
      "name": "symbol",
      "outputs": [
        {
          "internalType": "string",
          "name": "",
          "type": "string"
        }
      ],
      "stateMutability": "view",
      "type": "function"
    },
    {
      "inputs": [],
      "name": "totalSupply",
      "outputs": [
        {
          "internalType": "uint256",
          "name": "",
          "type": "uint256"
        }
      ],
      "stateMutability": "view",
      "type": "function"
    },
    {
      "inputs": [
        {
          "internalType": "address",
          "name": "to",
          "type": "address"
        },
        {
          "internalType": "uint256",
          "name": "value",
          "type": "uint256"
        }
      ],
      "name": "transfer",
      "outputs": [
        {
          "internalType": "bool",
          "name": "",
          "type": "bool"
        }
      ],
      "stateMutability": "nonpayable",
      "type": "function"
    },
    {
      "inputs": [
        {
          "internalType": "address",
          "name": "from",
          "type": "address"
        },
        {
          "internalType": "address",
          "name": "to",
          "type": "address"
        },
        {
          "internalType": "uint256",
          "name": "value",
          "type": "uint256"
        }
      ],
      "name": "transferFrom",
      "outputs": [
        {
          "internalType": "bool",
          "name": "",
          "type": "bool"
        }
      ],
      "stateMutability": "nonpayable",
      "type": "function"
    },
    {
      "inputs": [
        {
          "internalType": "address",
          "name": "newOwner",
          "type": "address"
        }
      ],
      "name": "transferOwnership",
      "outputs": [],
      "stateMutability": "nonpayable",
      "type": "function"
    }
  ],
  "bytecode": "0x6101606040523480156200001257600080fd5b5060405162002e7e38038062002e7e833981016040819052620000359162000967565b806040518060400160405280600881526020016723b7bb2a37b5b2b760c11b81525080604051806040016040528060018152602001603160f81b8152506040518060400160405280600881526020016723b7bb2a37b5b2b760c11b8152506040518060400160405280600281526020016111d560f21b8152508160039081620000bf919062000a36565b506004620000ce828262000a36565b50620000e091508390506005620001f3565b61012052620000f1816006620001f3565b61014052815160208084019190912060e052815190820120610100524660a0526200017f60e05161010051604080517f8b73c3c69bb8fe3d512ecc4cf759cc79239f7b179b0ffacaa9a75d522b39400f60208201529081019290925260608201524660808201523060a082015260009060c00160405160208183030381529060405280519060200120905090565b60805250503060c052506001600160a01b038116620001b957604051631e4fbdf760e01b8152600060048201526024015b60405180910390fd5b620001c4816200022c565b50620001ec81620001d86012600a62000c15565b620001e6906103e862000c26565b6200027e565b5062000d2e565b600060208351101562000213576200020b83620002bc565b905062000226565b8162000220848262000a36565b5060ff90505b92915050565b600b80546001600160a01b038381166001600160a01b0319831681179093556040519116919082907f8be0079c531659141344cd1fd0a4f28419497f9722a3daafe3b4186f6b6457e090600090a35050565b6001600160a01b038216620002aa5760405163ec442f0560e01b815260006004820152602401620001b0565b620002b860008383620002ff565b5050565b600080829050601f81511115620002ea578260405163305a27a960e01b8152600401620001b0919062000c40565b8051620002f78262000c90565b179392505050565b6200030c83838362000311565b505050565b6200031e83838362000380565b6001600160a01b038316620003735760006200033960025490565b90506001600160d01b03808211156200037057604051630e58ae9360e11b81526004810183905260248101829052604401620001b0565b50505b6200030c838383620004b3565b6001600160a01b038316620003af578060026000828254620003a3919062000cb5565b90915550620004239050565b6001600160a01b03831660009081526020819052604090205481811015620004045760405163391434e360e21b81526001600160a01b03851660048201526024810182905260448101839052606401620001b0565b6001600160a01b03841660009081526020819052604090209082900390555b6001600160a01b038216620004415760028054829003905562000460565b6001600160a01b03821660009081526020819052604090208054820190555b816001600160a01b0316836001600160a01b03167fddf252ad1be2c89b69c2b068fc378daa952ba7f163c4a11628f55a4df523b3ef83604051620004a691815260200190565b60405180910390a3505050565b6001600160a01b038316620004e857620004e5600a620009e06200054b60201b17620004df8462000560565b6200059a565b50505b6001600160a01b038216620005175762000514600a620009ec620005d760201b17620004df8462000560565b50505b6001600160a01b038381166000908152600860205260408082205485841683529120546200030c92918216911683620005e5565b600062000559828462000ccb565b9392505050565b60006001600160d01b0382111562000596576040516306dfcc6560e41b815260d0600482015260248101839052604401620001b0565b5090565b600080620005ca620005ab6200074c565b620005c1620005ba886200075d565b868860201c565b879190620007ac565b915091505b935093915050565b600062000559828462000cf5565b816001600160a01b0316836001600160a01b031614158015620006085750600081115b156200030c576001600160a01b03831615620006ab576001600160a01b038316600090815260096020908152604082208291620006569190620005d7901b620009ec17620004df8662000560565b6001600160d01b031691506001600160d01b03169150846001600160a01b031660008051602062002e5e8339815191528383604051620006a0929190918252602082015260400190565b60405180910390a250505b6001600160a01b038216156200030c576001600160a01b038216600090815260096020908152604082208291620006f391906200054b901b620009e017620004df8662000560565b6001600160d01b031691506001600160d01b03169150836001600160a01b031660008051602062002e5e83398151915283836040516200073d929190918252602082015260400190565b60405180910390a25050505050565b600062000758620007bc565b905090565b80546000908015620007a35762000789836200077b60018462000d18565b600091825260209091200190565b54660100000000000090046001600160d01b031662000559565b60009392505050565b600080620005ca858585620007c9565b6000620007584362000932565b825460009081908015620008d3576000620007eb876200077b60018562000d18565b805490915065ffffffffffff80821691660100000000000090046001600160d01b03169088168211156200083257604051632520601d60e01b815260040160405180910390fd5b8765ffffffffffff168265ffffffffffff16036200087057825465ffffffffffff1666010000000000006001600160d01b03891602178355620008c4565b6040805180820190915265ffffffffffff808a1682526001600160d01b03808a1660208085019182528d54600181018f5560008f815291909120945191519092166601000000000000029216919091179101555b9450859350620005cf92505050565b50506040805180820190915265ffffffffffff80851682526001600160d01b0380851660208085019182528854600181018a5560008a8152918220955192519093166601000000000000029190931617920191909155905081620005cf565b600065ffffffffffff82111562000596576040516306dfcc6560e41b81526030600482015260248101839052604401620001b0565b6000602082840312156200097a57600080fd5b81516001600160a01b03811681146200055957600080fd5b634e487b7160e01b600052604160045260246000fd5b600181811c90821680620009bd57607f821691505b602082108103620009de57634e487b7160e01b600052602260045260246000fd5b50919050565b601f8211156200030c57600081815260208120601f850160051c8101602086101562000a0d5750805b601f850160051c820191505b8181101562000a2e5782815560010162000a19565b505050505050565b81516001600160401b0381111562000a525762000a5262000992565b62000a6a8162000a638454620009a8565b84620009e4565b602080601f83116001811462000aa2576000841562000a895750858301515b600019600386901b1c1916600185901b17855562000a2e565b600085815260208120601f198616915b8281101562000ad35788860151825594840194600190910190840162000ab2565b508582101562000af25787850151600019600388901b60f8161c191681555b5050505050600190811b01905550565b634e487b7160e01b600052601160045260246000fd5b600181815b8085111562000b5957816000190482111562000b3d5762000b3d62000b02565b8085161562000b4b57918102915b93841c939080029062000b1d565b509250929050565b60008262000b725750600162000226565b8162000b815750600062000226565b816001811462000b9a576002811462000ba55762000bc5565b600191505062000226565b60ff84111562000bb95762000bb962000b02565b50506001821b62000226565b5060208310610133831016604e8410600b841016171562000bea575081810a62000226565b62000bf6838362000b18565b806000190482111562000c0d5762000c0d62000b02565b029392505050565b60006200055960ff84168362000b61565b808202811582820484141762000226576200022662000b02565b600060208083528351808285015260005b8181101562000c6f5785810183015185820160400152820162000c51565b506000604082860101526040601f19601f8301168501019250505092915050565b80516020808301519190811015620009de5760001960209190910360031b1b16919050565b8082018082111562000226576200022662000b02565b6001600160d01b0381811683821601908082111562000cee5762000cee62000b02565b5092915050565b6001600160d01b0382811682821603908082111562000cee5762000cee62000b02565b8181038181111562000226576200022662000b02565b60805160a05160c05160e0516101005161012051610140516120d562000d896000396000610ebe01526000610e9101526000610bc201526000610b9a01526000610af501526000610b1f01526000610b4901526120d56000f3fe608060405234801561001057600080fd5b50600436106101c45760003560e01c80637ecebe00116100f9578063a9059cbb11610097578063dd62ed3e11610071578063dd62ed3e146103eb578063de5f72fd14610424578063f1127ed81461042c578063f2fde38b1461046b57600080fd5b8063a9059cbb146103b2578063c3cda520146103c5578063d505accf146103d857600080fd5b80638e539e8c116100d35780638e539e8c1461036557806391ddadf41461037857806395d89b41146103975780639ab24eb01461039f57600080fd5b80637ecebe001461032657806384b0196e146103395780638da5cb5b1461035457600080fd5b806340c10f19116101665780635c19a95c116101405780635c19a95c146102ba5780636fcfff45146102cd57806370a08231146102f5578063715018a61461031e57600080fd5b806340c10f19146102595780634bf5d7e91461026e578063587cde1e1461027657600080fd5b806323b872dd116101a257806323b872dd1461021c578063313ce5671461022f5780633644e5151461023e5780633a46b1a81461024657600080fd5b806306fdde03146101c9578063095ea7b3146101e757806318160ddd1461020a575b600080fd5b6101d161047e565b6040516101de9190611bcf565b60405180910390f35b6101fa6101f5366004611bfe565b610510565b60405190151581526020016101de565b6002545b6040519081526020016101de565b6101fa61022a366004611c28565b61052a565b604051601281526020016101de565b61020e61054e565b61020e610254366004611bfe565b61055d565b61026c610267366004611bfe565b610599565b005b6101d16105af565b6102a2610284366004611c64565b6001600160a01b039081166000908152600860205260409020541690565b6040516001600160a01b0390911681526020016101de565b61026c6102c8366004611c64565b610627565b6102e06102db366004611c64565b610632565b60405163ffffffff90911681526020016101de565b61020e610303366004611c64565b6001600160a01b031660009081526020819052604090205490565b61026c61063d565b61020e610334366004611c64565b610651565b61034161065c565b6040516101de9796959493929190611c7f565b600b546001600160a01b03166102a2565b61020e610373366004611d15565b6106a2565b6103806106c7565b60405165ffffffffffff90911681526020016101de565b6101d16106d1565b61020e6103ad366004611c64565b6106e0565b6101fa6103c0366004611bfe565b610701565b61026c6103d3366004611d3f565b61070f565b61026c6103e6366004611d97565b6107d1565b61020e6103f9366004611e01565b6001600160a01b03918216600090815260016020908152604080832093909416825291909152205490565b61026c61090b565b61043f61043a366004611e34565b61097d565b60408051825165ffffffffffff1681526020928301516001600160d01b031692810192909252016101de565b61026c610479366004611c64565b6109a2565b60606003805461048d90611e74565b80601f01602080910402602001604051908101604052809291908181526020018280546104b990611e74565b80156105065780601f106104db57610100808354040283529160200191610506565b820191906000526020600020905b8154815290600101906020018083116104e957829003601f168201915b5050505050905090565b60003361051e8185856109f8565b60019150505b92915050565b600033610538858285610a0a565b610543858585610a89565b506001949350505050565b6000610558610ae8565b905090565b600061058961056b83610c13565b6001600160a01b038516600090815260096020526040902090610c62565b6001600160d01b03169392505050565b6105a1610d18565b6105ab8282610d45565b5050565b60606105b9610d7b565b65ffffffffffff166105c96106c7565b65ffffffffffff16146105ef576040516301bfc1c560e61b815260040160405180910390fd5b5060408051808201909152601d81527f6d6f64653d626c6f636b6e756d6265722666726f6d3d64656661756c74000000602082015290565b336105ab8183610d86565b600061052482610df8565b610645610d18565b61064f6000610e1a565b565b600061052482610e6c565b600060608060008060006060610670610e8a565b610678610eb7565b60408051600080825260208201909252600f60f81b9b939a50919850469750309650945092509050565b60006106b86106b083610c13565b600a90610c62565b6001600160d01b031692915050565b6000610558610d7b565b60606004805461048d90611e74565b6001600160a01b03811660009081526009602052604081206106b890610ee4565b60003361051e818585610a89565b8342111561073857604051632341d78760e11b8152600481018590526024015b60405180910390fd5b604080517fe48329057bfd03d55e49b547132e39cffd9c1820ad7b9d4c5307691425d15adf60208201526001600160a01b0388169181019190915260608101869052608081018590526000906107b2906107aa9060a00160405160208183030381529060405280519060200120610f1d565b858585610f4a565b90506107be8187610f78565b6107c88188610d86565b50505050505050565b834211156107f55760405163313c898160e11b81526004810185905260240161072f565b60007f6e71edae12b1b97f4d1f60370fef10105fa2faae0126114a169c64845d6126c98888886108428c6001600160a01b0316600090815260076020526040902080546001810190915590565b6040805160208101969096526001600160a01b0394851690860152929091166060840152608083015260a082015260c0810186905260e001604051602081830303815290604052805190602001209050600061089d82610f1d565b905060006108ad82878787610f4a565b9050896001600160a01b0316816001600160a01b0316146108f4576040516325c0072360e11b81526001600160a01b0380831660048301528b16602482015260440161072f565b6108ff8a8a8a6109f8565b50505050505050505050565b336000908152602081905260409020541561095d5760405162461bcd60e51b8152602060048201526012602482015271416c72656164792068617320746f6b656e7360701b604482015260640161072f565b61064f3361096d6012600a611fa8565b610978906064611fb7565b610d45565b604080518082019091526000808252602082015261099b8383610fcb565b9392505050565b6109aa610d18565b6001600160a01b0381166109d457604051631e4fbdf760e01b81526000600482015260240161072f565b6109dd81610e1a565b50565b600061099b8284611fce565b600061099b8284611ff5565b610a058383836001611001565b505050565b6001600160a01b03838116600090815260016020908152604080832093861683529290522054600019811015610a835781811015610a7457604051637dc7a0d960e11b81526001600160a01b0384166004820152602481018290526044810183905260640161072f565b610a8384848484036000611001565b50505050565b6001600160a01b038316610ab357604051634b637e8f60e11b81526000600482015260240161072f565b6001600160a01b038216610add5760405163ec442f0560e01b81526000600482015260240161072f565b610a058383836110d6565b6000306001600160a01b037f000000000000000000000000000000000000000000000000000000000000000016148015610b4157507f000000000000000000000000000000000000000000000000000000000000000046145b15610b6b57507f000000000000000000000000000000000000000000000000000000000000000090565b610558604080517f8b73c3c69bb8fe3d512ecc4cf759cc79239f7b179b0ffacaa9a75d522b39400f60208201527f0000000000000000000000000000000000000000000000000000000000000000918101919091527f000000000000000000000000000000000000000000000000000000000000000060608201524660808201523060a082015260009060c00160405160208183030381529060405280519060200120905090565b600080610c1e6106c7565b90508065ffffffffffff168310610c5957604051637669fc0f60e11b81526004810184905265ffffffffffff8216602482015260440161072f565b61099b836110e1565b815460009081816005811115610cc1576000610c7d84611118565b610c879085612015565b60008881526020902090915081015465ffffffffffff9081169087161015610cb157809150610cbf565b610cbc816001612028565b92505b505b6000610ccf87878585611271565b90508015610d0a57610cf487610ce6600184612015565b600091825260209091200190565b54600160301b90046001600160d01b0316610d0d565b60005b979650505050505050565b600b546001600160a01b0316331461064f5760405163118cdaa760e01b815233600482015260240161072f565b6001600160a01b038216610d6f5760405163ec442f0560e01b81526000600482015260240161072f565b6105ab600083836110d6565b6000610558436110e1565b6001600160a01b0382811660008181526008602052604080822080548686166001600160a01b0319821681179092559151919094169392849290917f3134e8a2e6d97e929a7e54011ea5485d7d196dd5f0ba4d4ef95803e8e3fc257f9190a4610a058183610df3866112d3565b6112f1565b6001600160a01b0381166000908152600960205260408120546105249061145d565b600b80546001600160a01b038381166001600160a01b0319831681179093556040519116919082907f8be0079c531659141344cd1fd0a4f28419497f9722a3daafe3b4186f6b6457e090600090a35050565b6001600160a01b038116600090815260076020526040812054610524565b60606105587f0000000000000000000000000000000000000000000000000000000000000000600561148e565b60606105587f0000000000000000000000000000000000000000000000000000000000000000600661148e565b80546000908015610f1457610efe83610ce6600184612015565b54600160301b90046001600160d01b031661099b565b60009392505050565b6000610524610f2a610ae8565b8360405161190160f01b8152600281019290925260228201526042902090565b600080600080610f5c88888888611539565b925092509250610f6c8282611608565b50909695505050505050565b6001600160a01b0382166000908152600760205260409020805460018101909155818114610a05576040516301d4b62360e61b81526001600160a01b03841660048201526024810182905260440161072f565b60408051808201909152600080825260208201526001600160a01b038316600090815260096020526040902061099b90836116c1565b6001600160a01b03841661102b5760405163e602df0560e01b81526000600482015260240161072f565b6001600160a01b03831661105557604051634a1406b160e11b81526000600482015260240161072f565b6001600160a01b0380851660009081526001602090815260408083209387168352929052208290558015610a8357826001600160a01b0316846001600160a01b03167f8c5be1e5ebec7d5bd14f71427d1e84f3dd0314c0f7b2291e5b200ac8c7c3b925846040516110c891815260200190565b60405180910390a350505050565b610a05838383611731565b600065ffffffffffff821115611114576040516306dfcc6560e41b8152603060048201526024810183905260440161072f565b5090565b600060018211611126575090565b816001600160801b821061113f5760809190911c9060401b5b68010000000000000000821061115a5760409190911c9060201b5b64010000000082106111715760209190911c9060101b5b6201000082106111865760109190911c9060081b5b610100821061119a5760089190911c9060041b5b601082106111ad5760049190911c9060021b5b600482106111b95760011b5b600302600190811c908185816111d1576111d161203b565b048201901c905060018185816111e9576111e961203b565b048201901c905060018185816112015761120161203b565b048201901c905060018185816112195761121961203b565b048201901c905060018185816112315761123161203b565b048201901c905060018185816112495761124961203b565b048201901c90506112688185816112625761126261203b565b04821190565b90039392505050565b60005b818310156112cb5760006112888484611798565b60008781526020902090915065ffffffffffff86169082015465ffffffffffff1611156112b7578092506112c5565b6112c2816001612028565b93505b50611274565b509392505050565b6001600160a01b038116600090815260208190526040812054610524565b816001600160a01b0316836001600160a01b0316141580156113135750600081115b15610a05576001600160a01b038316156113bb576001600160a01b03831660009081526009602052604081208190611356906109ec611351866117b3565b6117e7565b6001600160d01b031691506001600160d01b03169150846001600160a01b03167fdec2bacdd2f05b59de34da9b523dff8be42e5e38e818c82fdb0bae774387a72483836040516113b0929190918252602082015260400190565b60405180910390a250505b6001600160a01b03821615610a05576001600160a01b038216600090815260096020526040812081906113f4906109e0611351866117b3565b6001600160d01b031691506001600160d01b03169150836001600160a01b03167fdec2bacdd2f05b59de34da9b523dff8be42e5e38e818c82fdb0bae774387a724838360405161144e929190918252602082015260400190565b60405180910390a25050505050565b600063ffffffff821115611114576040516306dfcc6560e41b8152602060048201526024810183905260440161072f565b606060ff83146114a8576114a183611820565b9050610524565b8180546114b490611e74565b80601f01602080910402602001604051908101604052809291908181526020018280546114e090611e74565b801561152d5780601f106115025761010080835404028352916020019161152d565b820191906000526020600020905b81548152906001019060200180831161151057829003601f168201915b50505050509050610524565b600080807f7fffffffffffffffffffffffffffffff5d576e7357a4501ddfe92f46681b20a084111561157457506000915060039050826115fe565b604080516000808252602082018084528a905260ff891692820192909252606081018790526080810186905260019060a0016020604051602081039080840390855afa1580156115c8573d6000803e3d6000fd5b5050604051601f1901519150506001600160a01b0381166115f4575060009250600191508290506115fe565b9250600091508190505b9450945094915050565b600082600381111561161c5761161c612051565b03611625575050565b600182600381111561163957611639612051565b036116575760405163f645eedf60e01b815260040160405180910390fd5b600282600381111561166b5761166b612051565b0361168c5760405163fce698f760e01b81526004810182905260240161072f565b60038260038111156116a0576116a0612051565b036105ab576040516335e2f38360e21b81526004810182905260240161072f565b6040805180820190915260008082526020820152826000018263ffffffff16815481106116f0576116f0612067565b60009182526020918290206040805180820190915291015465ffffffffffff81168252600160301b90046001600160d01b0316918101919091529392505050565b61173c83838361185f565b6001600160a01b03831661178d57600061175560025490565b90506001600160d01b038082111561178a57604051630e58ae9360e11b8152600481018390526024810182905260440161072f565b50505b610a05838383611989565b60006117a7600284841861207d565b61099b90848416612028565b60006001600160d01b03821115611114576040516306dfcc6560e41b815260d060048201526024810183905260440161072f565b6000806118136117f56106c7565b61180b61180188610ee4565b868863ffffffff16565b8791906119ff565b915091505b935093915050565b6060600061182d83611a0d565b604080516020808252818301909252919250600091906020820181803683375050509182525060208101929092525090565b6001600160a01b03831661188a57806002600082825461187f9190612028565b909155506118fc9050565b6001600160a01b038316600090815260208190526040902054818110156118dd5760405163391434e360e21b81526001600160a01b0385166004820152602481018290526044810183905260640161072f565b6001600160a01b03841660009081526020819052604090209082900390555b6001600160a01b03821661191857600280548290039055611937565b6001600160a01b03821660009081526020819052604090208054820190555b816001600160a01b0316836001600160a01b03167fddf252ad1be2c89b69c2b068fc378daa952ba7f163c4a11628f55a4df523b3ef8360405161197c91815260200190565b60405180910390a3505050565b6001600160a01b0383166119ab576119a8600a6109e0611351846117b3565b50505b6001600160a01b0382166119cd576119ca600a6109ec611351846117b3565b50505b6001600160a01b03838116600090815260086020526040808220548584168352912054610a05929182169116836112f1565b600080611813858585611a35565b600060ff8216601f81111561052457604051632cd44ac360e21b815260040160405180910390fd5b825460009081908015611b2e576000611a5387610ce6600185612015565b805490915065ffffffffffff80821691600160301b90046001600160d01b0316908816821115611a9657604051632520601d60e01b815260040160405180910390fd5b8765ffffffffffff168265ffffffffffff1603611acf57825465ffffffffffff16600160301b6001600160d01b03891602178355611b20565b6040805180820190915265ffffffffffff808a1682526001600160d01b03808a1660208085019182528d54600181018f5560008f81529190912094519151909216600160301b029216919091179101555b945085935061181892505050565b50506040805180820190915265ffffffffffff80851682526001600160d01b0380851660208085019182528854600181018a5560008a815291822095519251909316600160301b029190931617920191909155905081611818565b6000815180845260005b81811015611baf57602081850181015186830182015201611b93565b506000602082860101526020601f19601f83011685010191505092915050565b60208152600061099b6020830184611b89565b80356001600160a01b0381168114611bf957600080fd5b919050565b60008060408385031215611c1157600080fd5b611c1a83611be2565b946020939093013593505050565b600080600060608486031215611c3d57600080fd5b611c4684611be2565b9250611c5460208501611be2565b9150604084013590509250925092565b600060208284031215611c7657600080fd5b61099b82611be2565b60ff60f81b881681526000602060e081840152611c9f60e084018a611b89565b8381036040850152611cb1818a611b89565b606085018990526001600160a01b038816608086015260a0850187905284810360c0860152855180825283870192509083019060005b81811015611d0357835183529284019291840191600101611ce7565b50909c9b505050505050505050505050565b600060208284031215611d2757600080fd5b5035919050565b803560ff81168114611bf957600080fd5b60008060008060008060c08789031215611d5857600080fd5b611d6187611be2565b95506020870135945060408701359350611d7d60608801611d2e565b92506080870135915060a087013590509295509295509295565b600080600080600080600060e0888a031215611db257600080fd5b611dbb88611be2565b9650611dc960208901611be2565b95506040880135945060608801359350611de560808901611d2e565b925060a0880135915060c0880135905092959891949750929550565b60008060408385031215611e1457600080fd5b611e1d83611be2565b9150611e2b60208401611be2565b90509250929050565b60008060408385031215611e4757600080fd5b611e5083611be2565b9150602083013563ffffffff81168114611e6957600080fd5b809150509250929050565b600181811c90821680611e8857607f821691505b602082108103611ea857634e487b7160e01b600052602260045260246000fd5b50919050565b634e487b7160e01b600052601160045260246000fd5b600181815b80851115611eff578160001904821115611ee557611ee5611eae565b80851615611ef257918102915b93841c9390800290611ec9565b509250929050565b600082611f1657506001610524565b81611f2357506000610524565b8160018114611f395760028114611f4357611f5f565b6001915050610524565b60ff841115611f5457611f54611eae565b50506001821b610524565b5060208310610133831016604e8410600b8410161715611f82575081810a610524565b611f8c8383611ec4565b8060001904821115611fa057611fa0611eae565b029392505050565b600061099b60ff841683611f07565b808202811582820484141761052457610524611eae565b6001600160d01b03818116838216019080821115611fee57611fee611eae565b5092915050565b6001600160d01b03828116828216039080821115611fee57611fee611eae565b8181038181111561052457610524611eae565b8082018082111561052457610524611eae565b634e487b7160e01b600052601260045260246000fd5b634e487b7160e01b600052602160045260246000fd5b634e487b7160e01b600052603260045260246000fd5b60008261209a57634e487b7160e01b600052601260045260246000fd5b50049056fea2646970667358221220c2ecd890888733616a48dc14fb4e297d3a43f9a730a46f4e2910a3b975c2a77564736f6c63430008140033dec2bacdd2f05b59de34da9b523dff8be42e5e38e818c82fdb0bae774387a724",
  "linkReferences": {},
  "deployedLinkReferences": {}
}