{
  "_format": "hh-sol-artifact-1",
  "contractName": "Crowdfund",
  "sourceName": "contracts/Crowdfund.sol",
  "abi": [
    {
      "inputs": [
        {
          "internalType": "address",
          "name": "initialOwner",
          "type": "address"
        }
      ],
      "stateMutability": "nonpayable",
      "type": "constructor"
    },
    {
      "inputs": [
        {
          "internalType": "address",
          "name": "owner",
          "type": "address"
        }
      ],
      "name": "OwnableInvalidOwner",
      "type": "error"
    },
    {
      "inputs": [
        {
          "internalType": "address",
          "name": "account",
          "type": "address"
        }
      ],
      "name": "OwnableUnauthorizedAccount",
      "type": "error"
    },
    {
      "anonymous": false,
      "inputs": [
        {
          "indexed": false,
          "internalType": "uint256",
          "name": "id",
          "type": "uint256"
        }
      ],
      "name": "CampaignApproved",
      "type": "event"
    },
    {
      "anonymous": false,
      "inputs": [
        {
          "indexed": false,
          "internalType": "uint256",
          "name": "id",
          "type": "uint256"
        },
        {
          "indexed": false,
          "internalType": "address",
          "name": "creator",
          "type": "address"
        },
        {
          "indexed": false,
          "internalType": "string",
          "name": "title",
          "type": "string"
        },
        {
          "indexed": false,
          "internalType": "uint256",
          "name": "goal",
          "type": "uint256"
        }
      ],
      "name": "CampaignCreated",
      "type": "event"
    },
    {
      "anonymous": false,
      "inputs": [
        {
          "indexed": false,
          "internalType": "uint256",
          "name": "id",
          "type": "uint256"
        },
        {
          "indexed": false,
          "internalType": "address",
          "name": "backer",
          "type": "address"
        },
        {
          "indexed": false,
          "internalType": "uint256",
          "name": "amount",
          "type": "uint256"
        }
      ],
      "name": "Funded",
      "type": "event"
    },
    {
      "anonymous": false,
      "inputs": [
        {
          "indexed": false,
          "internalType": "uint256",
          "name": "id",
          "type": "uint256"
        },
        {
          "indexed": false,
          "internalType": "uint256",
          "name": "amount",
          "type": "uint256"
        }
      ],
      "name": "FundsReleased",
      "type": "event"
    },
    {
      "anonymous": false,
      "inputs": [
        {
          "indexed": true,
          "internalType": "address",
          "name": "previousOwner",
          "type": "address"
        },
        {
          "indexed": true,
          "internalType": "address",
          "name": "newOwner",
          "type": "address"
        }
      ],
      "name": "OwnershipTransferred",
      "type": "event"
    },
    {
      "inputs": [
        {
          "internalType": "uint256",
          "name": "_id",
          "type": "uint256"
        }
      ],
      "name": "approveCampaign",
      "outputs": [],
      "stateMutability": "nonpayable",
      "type": "function"
    },
    {
      "inputs": [],
      "name": "campaignCount",
      "outputs": [
        {
          "internalType": "uint256",
          "name": "",
          "type": "uint256"
        }
      ],
      "stateMutability": "view",
      "type": "function"
    },
    {
      "inputs": [
        {
          "internalType": "uint256",
          "name": "",
          "type": "uint256"
        }
      ],
      "name": "campaigns",
      "outputs": [
        {
          "internalType": "uint256",
          "name": "id",
          "type": "uint256"
        },
        {
          "internalType": "address",
          "name": "creator",
          "type": "address"
        },
        {
          "internalType": "string",
          "name": "title",
          "type": "string"
        },
        {
          "internalType": "string",
          "name": "description",
          "type": "string"
        },
        {
          "internalType": "uint256",
          "name": "goal",
          "type": "uint256"
        },
        {
          "internalType": "uint256",
          "name": "raised",
          "type": "uint256"
        },
        {
          "internalType": "bool",
          "name": "isApproved",
          "type": "bool"
        },
        {
          "internalType": "bool",
          "name": "isCompleted",
          "type": "bool"
        }
      ],
      "stateMutability": "view",
      "type": "function"
    },
    {
      "inputs": [
        {
          "internalType": "string",
          "name": "_title",
          "type": "string"
        },
        {
          "internalType": "string",
          "name": "_description",
          "type": "string"
        },
        {
          "internalType": "uint256",
          "name": "_goal",
          "type": "uint256"
        }
      ],
      "name": "createCampaign",
      "outputs": [],
      "stateMutability": "nonpayable",
      "type": "function"
    },
    {
      "inputs": [
        {
          "internalType": "uint256",
          "name": "_id",
          "type": "uint256"
        }
      ],
      "name": "fundCampaign",
      "outputs": [],
      "stateMutability": "payable",
      "type": "function"
    },
    {
      "inputs": [],
      "name": "owner",
      "outputs": [
        {
          "internalType": "address",
          "name": "",
          "type": "address"
        }
      ],
      "stateMutability": "view",
      "type": "function"
    },
    {
      "inputs": [
        {
          "internalType": "uint256",
          "name": "_id",
          "type": "uint256"
        }
      ],
      "name": "releaseFunds",
      "outputs": [],
      "stateMutability": "nonpayable",
      "type": "function"
    },
    {
      "inputs": [],
      "name": "renounceOwnership",
      "outputs": [],
      "stateMutability": "nonpayable",
      "type": "function"
    },
    {
      "inputs": [
        {
          "internalType": "address",
          "name": "newOwner",
          "type": "address"
        }
      ],
      "name": "transferOwnership",
      "outputs": [],
      "stateMutability": "nonpayable",
      "type": "function"
    }
  ],
  "bytecode": "0x608060405234801561001057600080fd5b50604051610dbb380380610dbb83398101604081905261002f916100be565b806001600160a01b03811661005e57604051631e4fbdf760e01b81526000600482015260240160405180910390fd5b6100678161006e565b50506100ee565b600080546001600160a01b038381166001600160a01b0319831681178455604051919092169283917f8be0079c531659141344cd1fd0a4f28419497f9722a3daafe3b4186f6b6457e09190a35050565b6000602082840312156100d057600080fd5b81516001600160a01b03811681146100e757600080fd5b9392505050565b610cbe806100fd6000396000f3fe6080604052600436106100865760003560e01c80638da5cb5b116100595780638da5cb5b1461012357806392bd38bc1461014b578063ee4e1b531461015e578063f2fde38b1461017e578063ffa56a571461019e57600080fd5b8063141961bc1461008b5780634d68282f146100c8578063715018a6146100ea5780637274e30d146100ff575b600080fd5b34801561009757600080fd5b506100ab6100a63660046108b4565b6101be565b6040516100bf989796959493929190610913565b60405180910390f35b3480156100d457600080fd5b506100e86100e33660046108b4565b610322565b005b3480156100f657600080fd5b506100e8610465565b34801561010b57600080fd5b5061011560025481565b6040519081526020016100bf565b34801561012f57600080fd5b506000546040516001600160a01b0390911681526020016100bf565b6100e86101593660046108b4565b610479565b34801561016a57600080fd5b506100e86101793660046108b4565b610607565b34801561018a57600080fd5b506100e861019936600461097c565b6106c5565b3480156101aa57600080fd5b506100e86101b9366004610a4f565b610703565b60016020819052600091825260409091208054918101546002820180546001600160a01b0390921692916101f190610abc565b80601f016020809104026020016040519081016040528092919081815260200182805461021d90610abc565b801561026a5780601f1061023f5761010080835404028352916020019161026a565b820191906000526020600020905b81548152906001019060200180831161024d57829003601f168201915b50505050509080600301805461027f90610abc565b80601f01602080910402602001604051908101604052809291908181526020018280546102ab90610abc565b80156102f85780601f106102cd576101008083540402835291602001916102f8565b820191906000526020600020905b8154815290600101906020018083116102db57829003601f168201915b50505050600483015460058401546006909401549293909290915060ff8082169161010090041688565b61032a610837565b60008181526001602052604090206006810154610100900460ff1661038f5760405162461bcd60e51b815260206004820152601660248201527510d85b5c185a59db881b9bdd0818dbdb5c1b195d195960521b60448201526064015b60405180910390fd5b60008160050154116103dc5760405162461bcd60e51b8152602060048201526016602482015275119d5b991cc8185b1c9958591e481c995b19585cd95960521b6044820152606401610386565b600581018054600091829055600183015460405191926001600160a01b039091169183156108fc0291849190818181858888f19350505050158015610425573d6000803e3d6000fd5b5060408051848152602081018390527f80230996023d69b50793fa73f1919127c9d8e741d3989743c479169f22e7a28891015b60405180910390a1505050565b61046d610837565b6104776000610864565b565b6000818152600160205260409020600681015460ff166104d35760405162461bcd60e51b815260206004820152601560248201527410d85b5c185a59db881b9bdd08185c1c1c9bdd9959605a1b6044820152606401610386565b6006810154610100900460ff161561052d5760405162461bcd60e51b815260206004820152601a60248201527f43616d706169676e20616c726561647920636f6d706c657465640000000000006044820152606401610386565b6000341161058b5760405162461bcd60e51b815260206004820152602560248201527f46756e64696e6720616d6f756e74206d75737420626520677265617465722074604482015264068616e20360dc1b6064820152608401610386565b3481600501600082825461059f9190610b0c565b909155505060408051838152336020820152348183015290517f38c48552690c96ec2872092ac1db6c19fb59f5a8c5b49bbf41ed4886d0ca69269181900360600190a180600401548160050154106106035760068101805461ff0019166101001790555b5050565b61060f610837565b60008181526001602052604090206006015460ff16156106715760405162461bcd60e51b815260206004820152601960248201527f43616d706169676e20616c726561647920617070726f766564000000000000006044820152606401610386565b600081815260016020818152604092839020600601805460ff191690921790915590518281527f3aa476b7499359259e68e236e4ba85f83ff093e3b6341e6a3f6f295d9cd68877910160405180910390a150565b6106cd610837565b6001600160a01b0381166106f757604051631e4fbdf760e01b815260006004820152602401610386565b61070081610864565b50565b6002805490600061071383610b25565b90915550506040805161010081018252600280548083523360208085019182528486018981526060860189905260808601889052600060a0870181905260c0870181905260e087018190529384526001918290529590922084518155905191810180546001600160a01b0319166001600160a01b03909316929092179091559251919291908201906107a59082610b8d565b50606082015160038201906107ba9082610b8d565b506080820151600482015560a0820151600582015560c08201516006909101805460e09093015115156101000261ff00199215159290921661ffff19909316929092171790556002546040517f825fb10f7650ed27414d6f86acdf7d5946927d9b25001f045f1a2435deec02fe9161045891339087908690610c4d565b6000546001600160a01b031633146104775760405163118cdaa760e01b8152336004820152602401610386565b600080546001600160a01b038381166001600160a01b0319831681178455604051919092169283917f8be0079c531659141344cd1fd0a4f28419497f9722a3daafe3b4186f6b6457e09190a35050565b6000602082840312156108c657600080fd5b5035919050565b6000815180845260005b818110156108f3576020818501810151868301820152016108d7565b506000602082860101526020601f19601f83011685010191505092915050565b8881526001600160a01b03881660208201526101006040820181905260009061093e8382018a6108cd565b9050828103606084015261095281896108cd565b6080840197909752505060a081019390935290151560c0830152151560e090910152949350505050565b60006020828403121561098e57600080fd5b81356001600160a01b03811681146109a557600080fd5b9392505050565b634e487b7160e01b600052604160045260246000fd5b600082601f8301126109d357600080fd5b813567ffffffffffffffff808211156109ee576109ee6109ac565b604051601f8301601f19908116603f01168101908282118183101715610a1657610a166109ac565b81604052838152866020858801011115610a2f57600080fd5b836020870160208301376000602085830101528094505050505092915050565b600080600060608486031215610a6457600080fd5b833567ffffffffffffffff80821115610a7c57600080fd5b610a88878388016109c2565b94506020860135915080821115610a9e57600080fd5b50610aab868287016109c2565b925050604084013590509250925092565b600181811c90821680610ad057607f821691505b602082108103610af057634e487b7160e01b600052602260045260246000fd5b50919050565b634e487b7160e01b600052601160045260246000fd5b80820180821115610b1f57610b1f610af6565b92915050565b600060018201610b3757610b37610af6565b5060010190565b601f821115610b8857600081815260208120601f850160051c81016020861015610b655750805b601f850160051c820191505b81811015610b8457828155600101610b71565b5050505b505050565b815167ffffffffffffffff811115610ba757610ba76109ac565b610bbb81610bb58454610abc565b84610b3e565b602080601f831160018114610bf05760008415610bd85750858301515b600019600386901b1c1916600185901b178555610b84565b600085815260208120601f198616915b82811015610c1f57888601518255948401946001909101908401610c00565b5085821015610c3d5787850151600019600388901b60f8161c191681555b5050505050600190811b01905550565b8481526001600160a01b0384166020820152608060408201819052600090610c77908301856108cd565b90508260608301529594505050505056fea26469706673582212200f2a5bf0faad523551e2094ba276ab2e681e76a918b602893f7ca70c3b92d04b64736f6c63430008140033",
  "linkReferences": {},
  "deployedLinkReferences": {}
}