{
  "_format": "hh-sol-artifact-1",
  "contractName": "CrowdfundGovernor",
  "sourceName": "contracts/CrowdfundGovernor.sol",
  "abi": [
    {
      "inputs": [
        {
          "internalType": "contract IVotes",
          "name": "_token",
          "type": "address"
        },
        {
          "internalType": "contract TimelockController",
          "name": "_timelock",
          "type": "address"
        }
      ],
      "stateMutability": "nonpayable",
      "type": "constructor"
    },
    {
      "inputs": [],
      "name": "CheckpointUnorderedInsertion",
      "type": "error"
    },
    {
      "inputs": [],
      "name": "FailedCall",
      "type": "error"
    },
    {
      "inputs": [
        {
          "internalType": "address",
          "name": "voter",
          "type": "address"
        }
      ],
      "name": "GovernorAlreadyCastVote",
      "type": "error"
    },
    {
      "inputs": [
        {
          "internalType": "uint256",
          "name": "proposalId",
          "type": "uint256"
        }
      ],
      "name": "GovernorAlreadyQueuedProposal",
      "type": "error"
    },
    {
      "inputs": [],
      "name": "GovernorDisabledDeposit",
      "type": "error"
    },
    {
      "inputs": [
        {
          "internalType": "address",
          "name": "proposer",
          "type": "address"
        },
        {
          "internalType": "uint256",
          "name": "votes",
          "type": "uint256"
        },
        {
          "internalType": "uint256",
          "name": "threshold",
          "type": "uint256"
        }
      ],
      "name": "GovernorInsufficientProposerVotes",
      "type": "error"
    },
    {
      "inputs": [
        {
          "internalType": "uint256",
          "name": "targets",
          "type": "uint256"
        },
        {
          "internalType": "uint256",
          "name": "calldatas",
          "type": "uint256"
        },
        {
          "internalType": "uint256",
          "name": "values",
          "type": "uint256"
        }
      ],
      "name": "GovernorInvalidProposalLength",
      "type": "error"
    },
    {
      "inputs": [
        {
          "internalType": "uint256",
          "name": "quorumNumerator",
          "type": "uint256"
        },
        {
          "internalType": "uint256",
          "name": "quorumDenominator",
          "type": "uint256"
        }
      ],
      "name": "GovernorInvalidQuorumFraction",
      "type": "error"
    },
    {
      "inputs": [
        {
          "internalType": "address",
          "name": "voter",
          "type": "address"
        }
      ],
      "name": "GovernorInvalidSignature",
      "type": "error"
    },
    {
      "inputs": [],
      "name": "GovernorInvalidVoteParams",
      "type": "error"
    },
    {
      "inputs": [],
      "name": "GovernorInvalidVoteType",
      "type": "error"
    },
    {
      "inputs": [
        {
          "internalType": "uint256",
          "name": "votingPeriod",
          "type": "uint256"
        }
      ],
      "name": "GovernorInvalidVotingPeriod",
      "type": "error"
    },
    {
      "inputs": [
        {
          "internalType": "uint256",
          "name": "proposalId",
          "type": "uint256"
        }
      ],
      "name": "GovernorNonexistentProposal",
      "type": "error"
    },
    {
      "inputs": [
        {
          "internalType": "uint256",
          "name": "proposalId",
          "type": "uint256"
        }
      ],
      "name": "GovernorNotQueuedProposal",
      "type": "error"
    },
    {
      "inputs": [
        {
          "internalType": "address",
          "name": "account",
          "type": "address"
        }
      ],
      "name": "GovernorOnlyExecutor",
      "type": "error"
    },
    {
      "inputs": [
        {
          "internalType": "address",
          "name": "account",
          "type": "address"
        }
      ],
      "name": "GovernorOnlyProposer",
      "type": "error"
    },
    {
      "inputs": [],
      "name": "GovernorQueueNotImplemented",
      "type": "error"
    },
    {
      "inputs": [
        {
          "internalType": "address",
          "name": "proposer",
          "type": "address"
        }
      ],
      "name": "GovernorRestrictedProposer",
      "type": "error"
    },
    {
      "inputs": [
        {
          "internalType": "uint256",
          "name": "proposalId",
          "type": "uint256"
        },
        {
          "internalType": "enum IGovernor.ProposalState",
          "name": "current",
          "type": "uint8"
        },
        {
          "internalType": "bytes32",
          "name": "expectedStates",
          "type": "bytes32"
        }
      ],
      "name": "GovernorUnexpectedProposalState",
      "type": "error"
    },
    {
      "inputs": [
        {
          "internalType": "address",
          "name": "account",
          "type": "address"
        },
        {
          "internalType": "uint256",
          "name": "currentNonce",
          "type": "uint256"
        }
      ],
      "name": "InvalidAccountNonce",
      "type": "error"
    },
    {
      "inputs": [],
      "name": "InvalidShortString",
      "type": "error"
    },
    {
      "inputs": [
        {
          "internalType": "uint8",
          "name": "bits",
          "type": "uint8"
        },
        {
          "internalType": "uint256",
          "name": "value",
          "type": "uint256"
        }
      ],
      "name": "SafeCastOverflowedUintDowncast",
      "type": "error"
    },
    {
      "inputs": [
        {
          "internalType": "string",
          "name": "str",
          "type": "string"
        }
      ],
      "name": "StringTooLong",
      "type": "error"
    },
    {
      "anonymous": false,
      "inputs": [],
      "name": "EIP712DomainChanged",
      "type": "event"
    },
    {
      "anonymous": false,
      "inputs": [
        {
          "indexed": false,
          "internalType": "uint256",
          "name": "proposalId",
          "type": "uint256"
        }
      ],
      "name": "ProposalCanceled",
      "type": "event"
    },
    {
      "anonymous": false,
      "inputs": [
        {
          "indexed": false,
          "internalType": "uint256",
          "name": "proposalId",
          "type": "uint256"
        },
        {
          "indexed": false,
          "internalType": "address",
          "name": "proposer",
          "type": "address"
        },
        {
          "indexed": false,
          "internalType": "address[]",
          "name": "targets",
          "type": "address[]"
        },
        {
          "indexed": false,
          "internalType": "uint256[]",
          "name": "values",
          "type": "uint256[]"
        },
        {
          "indexed": false,
          "internalType": "string[]",
          "name": "signatures",
          "type": "string[]"
        },
        {
          "indexed": false,
          "internalType": "bytes[]",
          "name": "calldatas",
          "type": "bytes[]"
        },
        {
          "indexed": false,
          "internalType": "uint256",
          "name": "voteStart",
          "type": "uint256"
        },
        {
          "indexed": false,
          "internalType": "uint256",
          "name": "voteEnd",
          "type": "uint256"
        },
        {
          "indexed": false,
          "internalType": "string",
          "name": "description",
          "type": "string"
        }
      ],
      "name": "ProposalCreated",
      "type": "event"
    },
    {
      "anonymous": false,
      "inputs": [
        {
          "indexed": false,
          "internalType": "uint256",
          "name": "proposalId",
          "type": "uint256"
        }
      ],
      "name": "ProposalExecuted",
      "type": "event"
    },
    {
      "anonymous": false,
      "inputs": [
        {
          "indexed": false,
          "internalType": "uint256",
          "name": "proposalId",
          "type": "uint256"
        },
        {
          "indexed": false,
          "internalType": "uint256",
          "name": "etaSeconds",
          "type": "uint256"
        }
      ],
      "name": "ProposalQueued",
      "type": "event"
    },
    {
      "anonymous": false,
      "inputs": [
        {
          "indexed": false,
          "internalType": "uint256",
          "name": "oldQuorumNumerator",
          "type": "uint256"
        },
        {
          "indexed": false,
          "internalType": "uint256",
          "name": "newQuorumNumerator",
          "type": "uint256"
        }
      ],
      "name": "QuorumNumeratorUpdated",
      "type": "event"
    },
    {
      "anonymous": false,
      "inputs": [
        {
          "indexed": false,
          "internalType": "address",
          "name": "oldTimelock",
          "type": "address"
        },
        {
          "indexed": false,
          "internalType": "address",
          "name": "newTimelock",
          "type": "address"
        }
      ],
      "name": "TimelockChange",
      "type": "event"
    },
    {
      "anonymous": false,
      "inputs": [
        {
          "indexed": true,
          "internalType": "address",
          "name": "voter",
          "type": "address"
        },
        {
          "indexed": false,
          "internalType": "uint256",
          "name": "proposalId",
          "type": "uint256"
        },
        {
          "indexed": false,
          "internalType": "uint8",
          "name": "support",
          "type": "uint8"
        },
        {
          "indexed": false,
          "internalType": "uint256",
          "name": "weight",
          "type": "uint256"
        },
        {
          "indexed": false,
          "internalType": "string",
          "name": "reason",
          "type": "string"
        }
      ],
      "name": "VoteCast",
      "type": "event"
    },
    {
      "anonymous": false,
      "inputs": [
        {
          "indexed": true,
          "internalType": "address",
          "name": "voter",
          "type": "address"
        },
        {
          "indexed": false,
          "internalType": "uint256",
          "name": "proposalId",
          "type": "uint256"
        },
        {
          "indexed": false,
          "internalType": "uint8",
          "name": "support",
          "type": "uint8"
        },
        {
          "indexed": false,
          "internalType": "uint256",
          "name": "weight",
          "type": "uint256"
        },
        {
          "indexed": false,
          "internalType": "string",
          "name": "reason",
          "type": "string"
        },
        {
          "indexed": false,
          "internalType": "bytes",
          "name": "params",
          "type": "bytes"
        }
      ],
      "name": "VoteCastWithParams",
      "type": "event"
    },
    {
      "inputs": [],
      "name": "BALLOT_TYPEHASH",
      "outputs": [
        {
          "internalType": "bytes32",
          "name": "",
          "type": "bytes32"
        }
      ],
      "stateMutability": "view",
      "type": "function"
    },
    {
      "inputs": [],
      "name": "CLOCK_MODE",
      "outputs": [
        {
          "internalType": "string",
          "name": "",
          "type": "string"
        }
      ],
      "stateMutability": "view",
      "type": "function"
    },
    {
      "inputs": [],
      "name": "COUNTING_MODE",
      "outputs": [
        {
          "internalType": "string",
          "name": "",
          "type": "string"
        }
      ],
      "stateMutability": "pure",
      "type": "function"
    },
    {
      "inputs": [],
      "name": "EXTENDED_BALLOT_TYPEHASH",
      "outputs": [
        {
          "internalType": "bytes32",
          "name": "",
          "type": "bytes32"
        }
      ],
      "stateMutability": "view",
      "type": "function"
    },
    {
      "inputs": [
        {
          "internalType": "address[]",
          "name": "targets",
          "type": "address[]"
        },
        {
          "internalType": "uint256[]",
          "name": "values",
          "type": "uint256[]"
        },
        {
          "internalType": "bytes[]",
          "name": "calldatas",
          "type": "bytes[]"
        },
        {
          "internalType": "bytes32",
          "name": "descriptionHash",
          "type": "bytes32"
        }
      ],
      "name": "cancel",
      "outputs": [
        {
          "internalType": "uint256",
          "name": "",
          "type": "uint256"
        }
      ],
      "stateMutability": "nonpayable",
      "type": "function"
    },
    {
      "inputs": [
        {
          "internalType": "uint256",
          "name": "proposalId",
          "type": "uint256"
        },
        {
          "internalType": "uint8",
          "name": "support",
          "type": "uint8"
        }
      ],
      "name": "castVote",
      "outputs": [
        {
          "internalType": "uint256",
          "name": "",
          "type": "uint256"
        }
      ],
      "stateMutability": "nonpayable",
      "type": "function"
    },
    {
      "inputs": [
        {
          "internalType": "uint256",
          "name": "proposalId",
          "type": "uint256"
        },
        {
          "internalType": "uint8",
          "name": "support",
          "type": "uint8"
        },
        {
          "internalType": "address",
          "name": "voter",
          "type": "address"
        },
        {
          "internalType": "bytes",
          "name": "signature",
          "type": "bytes"
        }
      ],
      "name": "castVoteBySig",
      "outputs": [
        {
          "internalType": "uint256",
          "name": "",
          "type": "uint256"
        }
      ],
      "stateMutability": "nonpayable",
      "type": "function"
    },
    {
      "inputs": [
        {
          "internalType": "uint256",
          "name": "proposalId",
          "type": "uint256"
        },
        {
          "internalType": "uint8",
          "name": "support",
          "type": "uint8"
        },
        {
          "internalType": "string",
          "name": "reason",
          "type": "string"
        }
      ],
      "name": "castVoteWithReason",
      "outputs": [
        {
          "internalType": "uint256",
          "name": "",
          "type": "uint256"
        }
      ],
      "stateMutability": "nonpayable",
      "type": "function"
    },
    {
      "inputs": [
        {
          "internalType": "uint256",
          "name": "proposalId",
          "type": "uint256"
        },
        {
          "internalType": "uint8",
          "name": "support",
          "type": "uint8"
        },
        {
          "internalType": "string",
          "name": "reason",
          "type": "string"
        },
        {
          "internalType": "bytes",
          "name": "params",
          "type": "bytes"
        }
      ],
      "name": "castVoteWithReasonAndParams",
      "outputs": [
        {
          "internalType": "uint256",
          "name": "",
          "type": "uint256"
        }
      ],
      "stateMutability": "nonpayable",
      "type": "function"
    },
    {
      "inputs": [
        {
          "internalType": "uint256",
          "name": "proposalId",
          "type": "uint256"
        },
        {
          "internalType": "uint8",
          "name": "support",
          "type": "uint8"
        },
        {
          "internalType": "address",
          "name": "voter",
          "type": "address"
        },
        {
          "internalType": "string",
          "name": "reason",
          "type": "string"
        },
        {
          "internalType": "bytes",
          "name": "params",
          "type": "bytes"
        },
        {
          "internalType": "bytes",
          "name": "signature",
          "type": "bytes"
        }
      ],
      "name": "castVoteWithReasonAndParamsBySig",
      "outputs": [
        {
          "internalType": "uint256",
          "name": "",
          "type": "uint256"
        }
      ],
      "stateMutability": "nonpayable",
      "type": "function"
    },
    {
      "inputs": [],
      "name": "clock",
      "outputs": [
        {
          "internalType": "uint48",
          "name": "",
          "type": "uint48"
        }
      ],
      "stateMutability": "view",
      "type": "function"
    },
    {
      "inputs": [],
      "name": "eip712Domain",
      "outputs": [
        {
          "internalType": "bytes1",
          "name": "fields",
          "type": "bytes1"
        },
        {
          "internalType": "string",
          "name": "name",
          "type": "string"
        },
        {
          "internalType": "string",
          "name": "version",
          "type": "string"
        },
        {
          "internalType": "uint256",
          "name": "chainId",
          "type": "uint256"
        },
        {
          "internalType": "address",
          "name": "verifyingContract",
          "type": "address"
        },
        {
          "internalType": "bytes32",
          "name": "salt",
          "type": "bytes32"
        },
        {
          "internalType": "uint256[]",
          "name": "extensions",
          "type": "uint256[]"
        }
      ],
      "stateMutability": "view",
      "type": "function"
    },
    {
      "inputs": [
        {
          "internalType": "address[]",
          "name": "targets",
          "type": "address[]"
        },
        {
          "internalType": "uint256[]",
          "name": "values",
          "type": "uint256[]"
        },
        {
          "internalType": "bytes[]",
          "name": "calldatas",
          "type": "bytes[]"
        },
        {
          "internalType": "bytes32",
          "name": "descriptionHash",
          "type": "bytes32"
        }
      ],
      "name": "execute",
      "outputs": [
        {
          "internalType": "uint256",
          "name": "",
          "type": "uint256"
        }
      ],
      "stateMutability": "payable",
      "type": "function"
    },
    {
      "inputs": [
        {
          "internalType": "address",
          "name": "account",
          "type": "address"
        },
        {
          "internalType": "uint256",
          "name": "timepoint",
          "type": "uint256"
        }
      ],
      "name": "getVotes",
      "outputs": [
        {
          "internalType": "uint256",
          "name": "",
          "type": "uint256"
        }
      ],
      "stateMutability": "view",
      "type": "function"
    },
    {
      "inputs": [
        {
          "internalType": "address",
          "name": "account",
          "type": "address"
        },
        {
          "internalType": "uint256",
          "name": "timepoint",
          "type": "uint256"
        },
        {
          "internalType": "bytes",
          "name": "params",
          "type": "bytes"
        }
      ],
      "name": "getVotesWithParams",
      "outputs": [
        {
          "internalType": "uint256",
          "name": "",
          "type": "uint256"
        }
      ],
      "stateMutability": "view",
      "type": "function"
    },
    {
      "inputs": [
        {
          "internalType": "uint256",
          "name": "proposalId",
          "type": "uint256"
        },
        {
          "internalType": "address",
          "name": "account",
          "type": "address"
        }
      ],
      "name": "hasVoted",
      "outputs": [
        {
          "internalType": "bool",
          "name": "",
          "type": "bool"
        }
      ],
      "stateMutability": "view",
      "type": "function"
    },
    {
      "inputs": [
        {
          "internalType": "address[]",
          "name": "targets",
          "type": "address[]"
        },
        {
          "internalType": "uint256[]",
          "name": "values",
          "type": "uint256[]"
        },
        {
          "internalType": "bytes[]",
          "name": "calldatas",
          "type": "bytes[]"
        },
        {
          "internalType": "bytes32",
          "name": "descriptionHash",
          "type": "bytes32"
        }
      ],
      "name": "hashProposal",
      "outputs": [
        {
          "internalType": "uint256",
          "name": "",
          "type": "uint256"
        }
      ],
      "stateMutability": "pure",
      "type": "function"
    },
    {
      "inputs": [],
      "name": "name",
      "outputs": [
        {
          "internalType": "string",
          "name": "",
          "type": "string"
        }
      ],
      "stateMutability": "view",
      "type": "function"
    },
    {
      "inputs": [
        {
          "internalType": "address",
          "name": "owner",
          "type": "address"
        }
      ],
      "name": "nonces",
      "outputs": [
        {
          "internalType": "uint256",
          "name": "",
          "type": "uint256"
        }
      ],
      "stateMutability": "view",
      "type": "function"
    },
    {
      "inputs": [
        {
          "internalType": "address",
          "name": "",
          "type": "address"
        },
        {
          "internalType": "address",
          "name": "",
          "type": "address"
        },
        {
          "internalType": "uint256[]",
          "name": "",
          "type": "uint256[]"
        },
        {
          "internalType": "uint256[]",
          "name": "",
          "type": "uint256[]"
        },
        {
          "internalType": "bytes",
          "name": "",
          "type": "bytes"
        }
      ],
      "name": "onERC1155BatchReceived",
      "outputs": [
        {
          "internalType": "bytes4",
          "name": "",
          "type": "bytes4"
        }
      ],
      "stateMutability": "nonpayable",
      "type": "function"
    },
    {
      "inputs": [
        {
          "internalType": "address",
          "name": "",
          "type": "address"
        },
        {
          "internalType": "address",
          "name": "",
          "type": "address"
        },
        {
          "internalType": "uint256",
          "name": "",
          "type": "uint256"
        },
        {
          "internalType": "uint256",
          "name": "",
          "type": "uint256"
        },
        {
          "internalType": "bytes",
          "name": "",
          "type": "bytes"
        }
      ],
      "name": "onERC1155Received",
      "outputs": [
        {
          "internalType": "bytes4",
          "name": "",
          "type": "bytes4"
        }
      ],
      "stateMutability": "nonpayable",
      "type": "function"
    },
    {
      "inputs": [
        {
          "internalType": "address",
          "name": "",
          "type": "address"
        },
        {
          "internalType": "address",
          "name": "",
          "type": "address"
        },
        {
          "internalType": "uint256",
          "name": "",
          "type": "uint256"
        },
        {
          "internalType": "bytes",
          "name": "",
          "type": "bytes"
        }
      ],
      "name": "onERC721Received",
      "outputs": [
        {
          "internalType": "bytes4",
          "name": "",
          "type": "bytes4"
        }
      ],
      "stateMutability": "nonpayable",
      "type": "function"
    },
    {
      "inputs": [
        {
          "internalType": "uint256",
          "name": "proposalId",
          "type": "uint256"
        }
      ],
      "name": "proposalDeadline",
      "outputs": [
        {
          "internalType": "uint256",
          "name": "",
          "type": "uint256"
        }
      ],
      "stateMutability": "view",
      "type": "function"
    },
    {
      "inputs": [
        {
          "internalType": "uint256",
          "name": "proposalId",
          "type": "uint256"
        }
      ],
      "name": "proposalEta",
      "outputs": [
        {
          "internalType": "uint256",
          "name": "",
          "type": "uint256"
        }
      ],
      "stateMutability": "view",
      "type": "function"
    },
    {
      "inputs": [
        {
          "internalType": "uint256",
          "name": "proposalId",
          "type": "uint256"
        }
      ],
      "name": "proposalNeedsQueuing",
      "outputs": [
        {
          "internalType": "bool",
          "name": "",
          "type": "bool"
        }
      ],
      "stateMutability": "view",
      "type": "function"
    },
    {
      "inputs": [
        {
          "internalType": "uint256",
          "name": "proposalId",
          "type": "uint256"
        }
      ],
      "name": "proposalProposer",
      "outputs": [
        {
          "internalType": "address",
          "name": "",
          "type": "address"
        }
      ],
      "stateMutability": "view",
      "type": "function"
    },
    {
      "inputs": [
        {
          "internalType": "uint256",
          "name": "proposalId",
          "type": "uint256"
        }
      ],
      "name": "proposalSnapshot",
      "outputs": [
        {
          "internalType": "uint256",
          "name": "",
          "type": "uint256"
        }
      ],
      "stateMutability": "view",
      "type": "function"
    },
    {
      "inputs": [],
      "name": "proposalThreshold",
      "outputs": [
        {
          "internalType": "uint256",
          "name": "",
          "type": "uint256"
        }
      ],
      "stateMutability": "pure",
      "type": "function"
    },
    {
      "inputs": [
        {
          "internalType": "uint256",
          "name": "proposalId",
          "type": "uint256"
        }
      ],
      "name": "proposalVotes",
      "outputs": [
        {
          "internalType": "uint256",
          "name": "againstVotes",
          "type": "uint256"
        },
        {
          "internalType": "uint256",
          "name": "forVotes",
          "type": "uint256"
        },
        {
          "internalType": "uint256",
          "name": "abstainVotes",
          "type": "uint256"
        }
      ],
      "stateMutability": "view",
      "type": "function"
    },
    {
      "inputs": [
        {
          "internalType": "address[]",
          "name": "targets",
          "type": "address[]"
        },
        {
          "internalType": "uint256[]",
          "name": "values",
          "type": "uint256[]"
        },
        {
          "internalType": "bytes[]",
          "name": "calldatas",
          "type": "bytes[]"
        },
        {
          "internalType": "string",
          "name": "description",
          "type": "string"
        }
      ],
      "name": "propose",
      "outputs": [
        {
          "internalType": "uint256",
          "name": "",
          "type": "uint256"
        }
      ],
      "stateMutability": "nonpayable",
      "type": "function"
    },
    {
      "inputs": [
        {
          "internalType": "address[]",
          "name": "targets",
          "type": "address[]"
        },
        {
          "internalType": "uint256[]",
          "name": "values",
          "type": "uint256[]"
        },
        {
          "internalType": "bytes[]",
          "name": "calldatas",
          "type": "bytes[]"
        },
        {
          "internalType": "bytes32",
          "name": "descriptionHash",
          "type": "bytes32"
        }
      ],
      "name": "queue",
      "outputs": [
        {
          "internalType": "uint256",
          "name": "",
          "type": "uint256"
        }
      ],
      "stateMutability": "nonpayable",
      "type": "function"
    },
    {
      "inputs": [
        {
          "internalType": "uint256",
          "name": "timepoint",
          "type": "uint256"
        }
      ],
      "name": "quorum",
      "outputs": [
        {
          "internalType": "uint256",
          "name": "",
          "type": "uint256"
        }
      ],
      "stateMutability": "view",
      "type": "function"
    },
    {
      "inputs": [],
      "name": "quorumDenominator",
      "outputs": [
        {
          "internalType": "uint256",
          "name": "",
          "type": "uint256"
        }
      ],
      "stateMutability": "view",
      "type": "function"
    },
    {
      "inputs": [
        {
          "internalType": "uint256",
          "name": "timepoint",
          "type": "uint256"
        }
      ],
      "name": "quorumNumerator",
      "outputs": [
        {
          "internalType": "uint256",
          "name": "",
          "type": "uint256"
        }
      ],
      "stateMutability": "view",
      "type": "function"
    },
    {
      "inputs": [],
      "name": "quorumNumerator",
      "outputs": [
        {
          "internalType": "uint256",
          "name": "",
          "type": "uint256"
        }
      ],
      "stateMutability": "view",
      "type": "function"
    },
    {
      "inputs": [
        {
          "internalType": "address",
          "name": "target",
          "type": "address"
        },
        {
          "internalType": "uint256",
          "name": "value",
          "type": "uint256"
        },
        {
          "internalType": "bytes",
          "name": "data",
          "type": "bytes"
        }
      ],
      "name": "relay",
      "outputs": [],
      "stateMutability": "payable",
      "type": "function"
    },
    {
      "inputs": [
        {
          "internalType": "uint256",
          "name": "proposalId",
          "type": "uint256"
        }
      ],
      "name": "state",
      "outputs": [
        {
          "internalType": "enum IGovernor.ProposalState",
          "name": "",
          "type": "uint8"
        }
      ],
      "stateMutability": "view",
      "type": "function"
    },
    {
      "inputs": [
        {
          "internalType": "bytes4",
          "name": "interfaceId",
          "type": "bytes4"
        }
      ],
      "name": "supportsInterface",
      "outputs": [
        {
          "internalType": "bool",
          "name": "",
          "type": "bool"
        }
      ],
      "stateMutability": "view",
      "type": "function"
    },
    {
      "inputs": [],
      "name": "timelock",
      "outputs": [
        {
          "internalType": "address",
          "name": "",
          "type": "address"
        }
      ],
      "stateMutability": "view",
      "type": "function"
    },
    {
      "inputs": [],
      "name": "token",
      "outputs": [
        {
          "internalType": "contract IERC5805",
          "name": "",
          "type": "address"
        }
      ],
      "stateMutability": "view",
      "type": "function"
    },
    {
      "inputs": [
        {
          "internalType": "uint256",
          "name": "newQuorumNumerator",
          "type": "uint256"
        }
      ],
      "name": "updateQuorumNumerator",
      "outputs": [],
      "stateMutability": "nonpayable",
      "type": "function"
    },
    {
      "inputs": [
        {
          "internalType": "contract TimelockController",
          "name": "newTimelock",
          "type": "address"
        }
      ],
      "name": "updateTimelock",
      "outputs": [],
      "stateMutability": "nonpayable",
      "type": "function"
    },
    {
      "inputs": [],
      "name": "version",
      "outputs": [
        {
          "internalType": "string",
          "name": "",
          "type": "string"
        }
      ],
      "stateMutability": "view",
      "type": "function"
    },
    {
      "inputs": [],
      "name": "votingDelay",
      "outputs": [
        {
          "internalType": "uint256",
          "name": "",
          "type": "uint256"
        }
      ],
      "stateMutability": "pure",
      "type": "function"
    },
    {
      "inputs": [],
      "name": "votingPeriod",
      "outputs": [
        {
          "internalType": "uint256",
          "name": "",
          "type": "uint256"
        }
      ],
      "stateMutability": "pure",
      "type": "function"
    },
    {
      "stateMutability": "payable",
      "type": "receive"
    }
  ],
  "bytecode": "0x6101806040523480156200001257600080fd5b5060405162004a1f38038062004a1f833981016040819052620000359162000613565b806004836040518060400160405280601181526020017021b937bbb2333ab73223b7bb32b93737b960791b81525080620000746200016660201b60201c565b6200008182600062000181565b610120526200009281600162000181565b61014052815160208084019190912060e052815190820120610100524660a0526200012060e05161010051604080517f8b73c3c69bb8fe3d512ecc4cf759cc79239f7b179b0ffacaa9a75d522b39400f60208201529081019290925260608201524660808201523060a082015260009060c00160405160208183030381529060405280519060200120905090565b60805250503060c0526003620001378282620006f7565b50506001600160a01b0316610160526200015181620001ba565b506200015d816200025e565b50505062000884565b6040805180820190915260018152603160f81b602082015290565b6000602083511015620001a1576200019983620002c7565b9050620001b4565b81620001ae8482620006f7565b5060ff90505b92915050565b606480821115620001ed5760405163243e544560e01b815260048101839052602481018290526044015b60405180910390fd5b6000620001f96200030a565b90506200021e6200020962000326565b6200021485620003a8565b60089190620003e2565b505060408051828152602081018590527f0553476bf02ef2726e8ce5ced78d63e26e602e4a2257b1f559418e24b4633997910160405180910390a1505050565b600954604080516001600160a01b03928316815291831660208301527f08f74ea46ef7894f65eabfb5e6e695de773a000b47c529ab559178069b226401910160405180910390a1600980546001600160a01b0319166001600160a01b0392909216919091179055565b600080829050601f81511115620002f5578260405163305a27a960e01b8152600401620001e49190620007c3565b8051620003028262000813565b179392505050565b6000620003186008620003ff565b6001600160d01b0316905090565b6000620003336101605190565b6001600160a01b03166391ddadf46040518163ffffffff1660e01b8152600401602060405180830381865afa9250505080156200038f575060408051601f3d908101601f191682019092526200038c9181019062000838565b60015b620003a3576200039e6200044f565b905090565b919050565b60006001600160d01b03821115620003de576040516306dfcc6560e41b815260d0600482015260248101839052604401620001e4565b5090565b600080620003f28585856200045c565b915091505b935093915050565b8054600090801562000445576200042b836200041d60018462000862565b600091825260209091200190565b54660100000000000090046001600160d01b031662000448565b60005b9392505050565b60006200039e43620005c5565b825460009081908015620005665760006200047e876200041d60018562000862565b805490915065ffffffffffff80821691660100000000000090046001600160d01b0316908816821115620004c557604051632520601d60e01b815260040160405180910390fd5b8765ffffffffffff168265ffffffffffff16036200050357825465ffffffffffff1666010000000000006001600160d01b0389160217835562000557565b6040805180820190915265ffffffffffff808a1682526001600160d01b03808a1660208085019182528d54600181018f5560008f815291909120945191519092166601000000000000029216919091179101555b9450859350620003f792505050565b50506040805180820190915265ffffffffffff80851682526001600160d01b0380851660208085019182528854600181018a5560008a8152918220955192519093166601000000000000029190931617920191909155905081620003f7565b600065ffffffffffff821115620003de576040516306dfcc6560e41b81526030600482015260248101839052604401620001e4565b6001600160a01b03811681146200061057600080fd5b50565b600080604083850312156200062757600080fd5b82516200063481620005fa565b60208401519092506200064781620005fa565b809150509250929050565b634e487b7160e01b600052604160045260246000fd5b600181811c908216806200067d57607f821691505b6020821081036200069e57634e487b7160e01b600052602260045260246000fd5b50919050565b601f821115620006f257600081815260208120601f850160051c81016020861015620006cd5750805b601f850160051c820191505b81811015620006ee57828155600101620006d9565b5050505b505050565b81516001600160401b0381111562000713576200071362000652565b6200072b8162000724845462000668565b84620006a4565b602080601f8311600181146200076357600084156200074a5750858301515b600019600386901b1c1916600185901b178555620006ee565b600085815260208120601f198616915b82811015620007945788860151825594840194600190910190840162000773565b5085821015620007b35787850151600019600388901b60f8161c191681555b5050505050600190811b01905550565b600060208083528351808285015260005b81811015620007f257858101830151858201604001528201620007d4565b506000604082860101526040601f19601f8301168501019250505092915050565b805160208083015191908110156200069e5760001960209190910360031b1b16919050565b6000602082840312156200084b57600080fd5b815165ffffffffffff811681146200044857600080fd5b81810381811115620001b457634e487b7160e01b600052601160045260246000fd5b60805160a05160c05160e05161010051610120516101405161016051614119620009066000396000818161094101528181610da0015281816112dd0152818161157d0152611ed001526000611e9b01526000611e6e015260006125e4015260006125bc01526000612517015260006125410152600061256b01526141196000f3fe6080604052600436106102765760003560e01c80637d5e81e21161014f578063b58131b0116100c1578063dd4e2ba51161007a578063dd4e2ba514610858578063deaaa7cc1461089e578063eb9019d4146108d2578063f23a6e61146108f2578063f8ce560a14610912578063fc0c546a1461093257600080fd5b8063b58131b0146107ab578063bc197c81146107c7578063c01f9e37146107e7578063c28bc2fa14610807578063c59057e41461081a578063d33219b41461083a57600080fd5b806397c3d3341161011357806397c3d334146106ea5780639a802a6d146106fe578063a7713a701461071e578063a890c91014610733578063a9a9529414610753578063ab58fb8e1461077357600080fd5b80637d5e81e2146106205780637ecebe001461064057806384b0196e146106765780638ff262e31461069e57806391ddadf4146106be57600080fd5b80633e4f49e6116101e857806354fd4d50116101ac57806354fd4d501461055657806356781388146105805780635b8d0e0d146105a05780635f398a14146105c057806360c4247f146105e05780637b3c71d31461060057600080fd5b80633e4f49e6146104555780634385963214610482578063452115d6146104cc5780634bf5d7e9146104ec578063544ffc9c1461050157600080fd5b8063150b7a021161023a578063150b7a0214610395578063160cbed7146103ce5780632656227d146103ee5780632d63f693146104015780632fe3e261146104215780633932abb1146102e757600080fd5b806301ffc9a7146102b257806302a251a3146102e757806306f3f9e61461030557806306fdde0314610325578063143489d01461034757600080fd5b366102ad5730610284610965565b6001600160a01b0316146102ab57604051637485328f60e11b815260040160405180910390fd5b005b600080fd5b3480156102be57600080fd5b506102d26102cd3660046130a3565b61097e565b60405190151581526020015b60405180910390f35b3480156102f357600080fd5b50600a5b6040519081526020016102de565b34801561031157600080fd5b506102ab6103203660046130cd565b6109d0565b34801561033157600080fd5b5061033a6109e4565b6040516102de9190613136565b34801561035357600080fd5b5061037d6103623660046130cd565b6000908152600460205260409020546001600160a01b031690565b6040516001600160a01b0390911681526020016102de565b3480156103a157600080fd5b506103b56103b0366004613229565b610a76565b6040516001600160e01b031990911681526020016102de565b3480156103da57600080fd5b506102f76103e9366004613400565b610ab9565b6102f76103fc366004613400565b610b88565b34801561040d57600080fd5b506102f761041c3660046130cd565b610cfc565b34801561042d57600080fd5b506102f77f3e83946653575f9a39005e1545185629e92736b7528ab20ca3816f315424a81181565b34801561046157600080fd5b506104756104703660046130cd565b610d1d565b6040516102de91906134c7565b34801561048e57600080fd5b506102d261049d3660046134d5565b60008281526007602090815260408083206001600160a01b038516845260030190915290205460ff1692915050565b3480156104d857600080fd5b506102f76104e7366004613400565b610d28565b3480156104f857600080fd5b5061033a610d9c565b34801561050d57600080fd5b5061053b61051c3660046130cd565b6000908152600760205260409020805460018201546002909201549092565b604080519384526020840192909252908201526060016102de565b34801561056257600080fd5b506040805180820190915260018152603160f81b602082015261033a565b34801561058c57600080fd5b506102f761059b366004613516565b610e5e565b3480156105ac57600080fd5b506102f76105bb36600461358a565b610e87565b3480156105cc57600080fd5b506102f76105db366004613644565b610fe6565b3480156105ec57600080fd5b506102f76105fb3660046130cd565b61103b565b34801561060c57600080fd5b506102f761061b3660046136c7565b6110c9565b34801561062c57600080fd5b506102f761063b366004613720565b611111565b34801561064c57600080fd5b506102f761065b3660046137d4565b6001600160a01b031660009081526002602052604090205490565b34801561068257600080fd5b5061068b6111c1565b6040516102de979695949392919061382c565b3480156106aa57600080fd5b506102f76106b936600461389c565b611207565b3480156106ca57600080fd5b506106d36112d9565b60405165ffffffffffff90911681526020016102de565b3480156106f657600080fd5b5060646102f7565b34801561070a57600080fd5b506102f76107193660046138ed565b611361565b34801561072a57600080fd5b506102f7611378565b34801561073f57600080fd5b506102ab61074e3660046137d4565b611392565b34801561075f57600080fd5b506102d261076e3660046130cd565b6113a3565b34801561077f57600080fd5b506102f761078e3660046130cd565b60009081526004602052604090206001015465ffffffffffff1690565b3480156107b757600080fd5b5068056bc75e2d631000006102f7565b3480156107d357600080fd5b506103b56107e2366004613945565b6113ac565b3480156107f357600080fd5b506102f76108023660046130cd565b6113f0565b6102ab6108153660046139d8565b611433565b34801561082657600080fd5b506102f7610835366004613400565b6114b3565b34801561084657600080fd5b506009546001600160a01b031661037d565b34801561086457600080fd5b506040805180820190915260208082527f737570706f72743d627261766f2671756f72756d3d666f722c6162737461696e9082015261033a565b3480156108aa57600080fd5b506102f77ff2aad550cf55f045cb27e9c559f9889fdfb6e6cdaa032301d6ea397784ae51d781565b3480156108de57600080fd5b506102f76108ed366004613a1b565b6114ed565b3480156108fe57600080fd5b506103b561090d366004613a47565b61150e565b34801561091e57600080fd5b506102f761092d3660046130cd565b611552565b34801561093e57600080fd5b507f000000000000000000000000000000000000000000000000000000000000000061037d565b60006109796009546001600160a01b031690565b905090565b60006001600160e01b031982166332a2ad4360e11b14806109af57506001600160e01b03198216630271189760e51b145b806109ca57506301ffc9a760e01b6001600160e01b03198316145b92915050565b6109d86115fc565b6109e181611676565b50565b6060600380546109f390613aaf565b80601f0160208091040260200160405190810160405280929190818152602001828054610a1f90613aaf565b8015610a6c5780601f10610a4157610100808354040283529160200191610a6c565b820191906000526020600020905b815481529060010190602001808311610a4f57829003601f168201915b5050505050905090565b600030610a81610965565b6001600160a01b031614610aa857604051637485328f60e11b815260040160405180910390fd5b50630a85bd0160e11b949350505050565b600080610ac8868686866114b3565b9050610add81610ad8600461170c565b61172f565b506000610aed828888888861176e565b905065ffffffffffff811615610b6557600082815260046020908152604091829020600101805465ffffffffffff191665ffffffffffff85169081179091558251858152918201527f9a2e42fd6722813d69113e7d0079d3d940171428df7373df9c7f7617cfda2892910160405180910390a1610b7e565b604051634844252360e11b815260040160405180910390fd5b5095945050505050565b600080610b97868686866114b3565b9050610bb781610ba7600561170c565b610bb1600461170c565b1761172f565b506000818152600460205260409020805460ff60f01b1916600160f01b17905530610be0610965565b6001600160a01b031614610c725760005b8651811015610c7057306001600160a01b0316878281518110610c1657610c16613ae9565b60200260200101516001600160a01b031603610c6057610c60858281518110610c4157610c41613ae9565b602002602001015180519060200120600561177d90919063ffffffff16565b610c6981613b15565b9050610bf1565b505b610c7f81878787876117df565b30610c88610965565b6001600160a01b031614158015610cb457506005546001600160801b03808216600160801b9092041614155b15610cbf5760006005555b6040518181527f712ae1383f79ac853f8d882153778e0260ef8f03b504e2866e0593e04d2b291f906020015b60405180910390a195945050505050565b600090815260046020526040902054600160a01b900465ffffffffffff1690565b60006109ca826117f3565b600080610d37868686866114b3565b9050610d4781610ad8600061170c565b506000818152600460205260409020546001600160a01b03163314610d865760405163233d98e360e01b81523360048201526024015b60405180910390fd5b610d9286868686611932565b9695505050505050565b60607f00000000000000000000000000000000000000000000000000000000000000006001600160a01b0316634bf5d7e96040518163ffffffff1660e01b8152600401600060405180830381865afa925050508015610e1d57506040513d6000823e601f3d908101601f19168201604052610e1a9190810190613b2e565b60015b610e59575060408051808201909152601d81527f6d6f64653d626c6f636b6e756d6265722666726f6d3d64656661756c74000000602082015290565b919050565b600080339050610e7f84828560405180602001604052806000815250611949565b949350505050565b600080610f6a87610f647f3e83946653575f9a39005e1545185629e92736b7528ab20ca3816f315424a8118c8c8c610edc8e6001600160a01b0316600090815260026020526040902080546001810190915590565b8d8d604051610eec929190613b9b565b60405180910390208c80519060200120604051602001610f499796959493929190968752602087019590955260ff9390931660408601526001600160a01b03919091166060850152608084015260a083015260c082015260e00190565b6040516020818303038152906040528051906020012061196c565b85611999565b905080610f95576040516394ab6c0760e01b81526001600160a01b0388166004820152602401610d7d565b610fd989888a89898080601f0160208091040260200160405190810160405280939291908181526020018383808284376000920191909152508b9250611a0d915050565b9998505050505050505050565b60008033905061103087828888888080601f0160208091040260200160405190810160405280939291908181526020018383808284376000920191909152508a9250611a0d915050565b979650505050505050565b60088054600091829061104f600184613bab565b8154811061105f5761105f613ae9565b6000918252602090912001805490915065ffffffffffff811690600160301b90046001600160d01b03168582116110a2576001600160d01b031695945050505050565b6110b66110ae87611aef565b600890611b26565b6001600160d01b03169695505050505050565b600080339050610d9286828787878080601f01602080910402602001604051908101604052809392919081815260200183838082843760009201919091525061194992505050565b60003361111e8184611bdb565b6111465760405163d9b3955760e01b81526001600160a01b0382166004820152602401610d7d565b68056bc75e2d6310000060006111778360016111606112d9565b61116a9190613bbe565b65ffffffffffff166114ed565b9050818110156111b357604051636121770b60e11b81526001600160a01b03841660048201526024810182905260448101839052606401610d7d565b506110308787878786611c62565b6000606080600080600060606111d5611e67565b6111dd611e94565b60408051600080825260208201909252600f60f81b9b939a50919850469750309650945092509050565b60008061129384610f647ff2aad550cf55f045cb27e9c559f9889fdfb6e6cdaa032301d6ea397784ae51d789898961125c8b6001600160a01b0316600090815260026020526040902080546001810190915590565b60408051602081019690965285019390935260ff90911660608401526001600160a01b0316608083015260a082015260c001610f49565b9050806112be576040516394ab6c0760e01b81526001600160a01b0385166004820152602401610d7d565b610d9286858760405180602001604052806000815250611949565b60007f00000000000000000000000000000000000000000000000000000000000000006001600160a01b03166391ddadf46040518163ffffffff1660e01b8152600401602060405180830381865afa925050508015611355575060408051601f3d908101601f1916820190925261135291810190613be4565b60015b610e5957610979611ec1565b600061136e848484611ecc565b90505b9392505050565b60006113846008611f62565b6001600160d01b0316905090565b61139a6115fc565b6109e181611f9b565b600060016109ca565b6000306113b7610965565b6001600160a01b0316146113de57604051637485328f60e11b815260040160405180910390fd5b5063bc197c8160e01b95945050505050565b60008181526004602052604081205461142590600160d01b810463ffffffff1690600160a01b900465ffffffffffff16613c0c565b65ffffffffffff1692915050565b61143b6115fc565b600080856001600160a01b0316858585604051611459929190613b9b565b60006040518083038185875af1925050503d8060008114611496576040519150601f19603f3d011682016040523d82523d6000602084013e61149b565b606091505b50915091506114aa8282612004565b50505050505050565b6000848484846040516020016114cc9493929190613cb9565b60408051601f19818403018152919052805160209091012095945050505050565b6000611371838361150960408051602081019091526000815290565b611ecc565b600030611519610965565b6001600160a01b03161461154057604051637485328f60e11b815260040160405180910390fd5b5063f23a6e6160e01b95945050505050565b6000606461155f8361103b565b604051632394e7a360e21b8152600481018590526001600160a01b037f00000000000000000000000000000000000000000000000000000000000000001690638e539e8c90602401602060405180830381865afa1580156115c4573d6000803e3d6000fd5b505050506040513d601f19601f820116820180604052508101906115e89190613d04565b6115f29190613d1d565b6109ca9190613d4a565b33611605610965565b6001600160a01b03161461162e576040516347096e4760e01b8152336004820152602401610d7d565b30611637610965565b6001600160a01b0316146116745760008036604051611657929190613b9b565b604051809103902090505b8061166d6005612020565b0361166257505b565b6064808211156116a35760405163243e544560e01b81526004810183905260248101829052604401610d7d565b60006116ad611378565b90506116cc6116ba6112d9565b6116c38561208f565b600891906120c3565b505060408051828152602081018590527f0553476bf02ef2726e8ce5ced78d63e26e602e4a2257b1f559418e24b4633997910160405180910390a1505050565b60008160078111156117205761172061348f565b600160ff919091161b92915050565b60008061173b84610d1d565b90506000836117498361170c565b1603611371578381846040516331b75e4d60e01b8152600401610d7d93929190613d6c565b6000610d9286868686866120de565b81546001600160801b03600160801b8204811691811660018301909116036117a9576117a96041612289565b6001600160801b03808216600090815260018086016020526040909120939093558354919092018216600160801b029116179055565b6117ec858585858561229b565b5050505050565b6000806117ff83612331565b905060058160078111156118155761181561348f565b146118205792915050565b6000838152600a602052604090819020546009549151632c258a9f60e11b81526004810182905290916001600160a01b03169063584b153e90602401602060405180830381865afa158015611879573d6000803e3d6000fd5b505050506040513d601f19601f8201168201806040525081019061189d9190613d8e565b156118ac575060059392505050565b600954604051632ab0f52960e01b8152600481018390526001600160a01b0390911690632ab0f52990602401602060405180830381865afa1580156118f5573d6000803e3d6000fd5b505050506040513d601f19601f820116820180604052508101906119199190613d8e565b15611928575060079392505050565b5060029392505050565b60006119408585858561246b565b95945050505050565b60006119408585858561196760408051602081019091526000815290565b611a0d565b60006109ca61197961250a565b8360405161190160f01b8152600281019290925260228201526042902090565b6000836001600160a01b03163b6000036119fb576000806119ba8585612635565b50909250905060008160038111156119d4576119d461348f565b1480156119f25750856001600160a01b0316826001600160a01b0316145b92505050611371565b611a06848484612682565b9050611371565b6000611a1d86610ad8600161170c565b506000611a3386611a2d89610cfc565b85611ecc565b90506000611a44888888858861275d565b90508351600003611a9b57866001600160a01b03167fb8e138887d0aa13bab447e82de9d5c1777041ecd21ca36ba824ff1e6c07ddda489888489604051611a8e9493929190613db0565b60405180910390a2611030565b866001600160a01b03167fe2babfbac5889a709b63bb7f598b324e08bc5a4fb9ec647fb3cbc9ec07eb87128988848989604051611adc959493929190613dd8565b60405180910390a2979650505050505050565b600065ffffffffffff821115611b22576040516306dfcc6560e41b81526030600482015260248101839052604401610d7d565b5090565b815460009081816005811115611b85576000611b4184612860565b611b4b9085613bab565b60008881526020902090915081015465ffffffffffff9081169087161015611b7557809150611b83565b611b80816001613e12565b92505b505b6000611b93878785856129b9565b90508015611bce57611bb887611baa600184613bab565b600091825260209091200190565b54600160301b90046001600160d01b0316611030565b6000979650505050505050565b80516000906034811015611bf35760019150506109ca565b60131981840101516001600160b01b03198116692370726f706f7365723d60b01b14611c24576001925050506109ca565b600080611c3586602a860386612a1b565b915091508115806110305750866001600160a01b0316816001600160a01b03161494505050505092915050565b6000611c7786868686805190602001206114b3565b905084518651141580611c8c57508351865114155b80611c9657508551155b15611ccb57855184518651604051630447b05d60e41b8152600481019390935260248301919091526044820152606401610d7d565b600081815260046020526040902054600160a01b900465ffffffffffff1615611d165780611cf882610d1d565b6040516331b75e4d60e01b8152610d7d929190600090600401613d6c565b6000600a611d226112d9565b65ffffffffffff16611d349190613e12565b90506000600a600084815260046020526040902080546001600160a01b0319166001600160a01b038716178155909150611d6d83611aef565b815465ffffffffffff91909116600160a01b0265ffffffffffff60a01b19909116178155611d9a82612aca565b815463ffffffff91909116600160d01b0263ffffffff60d01b1990911617815588517f7d84a6263ae0d98d3329bd7b46bb4e8d6f98cd35a7adb45c274c8b7fd5ebd5e090859087908c908c906001600160401b03811115611dfd57611dfd61315e565b604051908082528060200260200182016040528015611e3057816020015b6060815260200190600190039081611e1b5790505b508c89611e3d8a82613e12565b8e604051611e5399989796959493929190613e25565b60405180910390a150505095945050505050565b60606109797f00000000000000000000000000000000000000000000000000000000000000006000612afb565b60606109797f00000000000000000000000000000000000000000000000000000000000000006001612afb565b600061097943611aef565b60007f0000000000000000000000000000000000000000000000000000000000000000604051630748d63560e31b81526001600160a01b038681166004830152602482018690529190911690633a46b1a890604401602060405180830381865afa158015611f3e573d6000803e3d6000fd5b505050506040513d601f19601f8201168201806040525081019061136e9190613d04565b80546000908015611f9257611f7c83611baa600184613bab565b54600160301b90046001600160d01b0316611371565b60009392505050565b600954604080516001600160a01b03928316815291831660208301527f08f74ea46ef7894f65eabfb5e6e695de773a000b47c529ab559178069b226401910160405180910390a1600980546001600160a01b0319166001600160a01b0392909216919091179055565b6060826120195761201482612ba6565b6109ca565b50806109ca565b80546000906001600160801b0380821691600160801b9004168103612049576120496031612289565b6001600160801b038181166000908152600185810160205260408220805492905585546fffffffffffffffffffffffffffffffff19169301909116919091179092555090565b60006001600160d01b03821115611b22576040516306dfcc6560e41b815260d0600482015260248101839052604401610d7d565b6000806120d1858585612bcf565b915091505b935093915050565b600080600960009054906101000a90046001600160a01b03166001600160a01b031663f27a0c926040518163ffffffff1660e01b8152600401602060405180830381865afa158015612134573d6000803e3d6000fd5b505050506040513d601f19601f820116820180604052508101906121589190613d04565b905060003060601b6bffffffffffffffffffffffff1916841860095460405163b1c5f42760e01b81529192506001600160a01b03169063b1c5f427906121ab908a908a908a906000908890600401613efc565b602060405180830381865afa1580156121c8573d6000803e3d6000fd5b505050506040513d601f19601f820116820180604052508101906121ec9190613d04565b6000898152600a60205260408082209290925560095491516308f2a0bb60e41b81526001600160a01b0390921691638f2a0bb091612237918b918b918b919088908a90600401613f4a565b600060405180830381600087803b15801561225157600080fd5b505af1158015612265573d6000803e3d6000fd5b5050505061227d82426122789190613e12565b611aef565b98975050505050505050565b634e487b71600052806020526024601cfd5b6009546001600160a01b031663e38335e53486868660003060601b6bffffffffffffffffffffffff191688186040518763ffffffff1660e01b81526004016122e7959493929190613efc565b6000604051808303818588803b15801561230057600080fd5b505af1158015612314573d6000803e3d6000fd5b50505060009687525050600a602052505060408320929092555050565b6000818152600460205260408120805460ff600160f01b8204811691600160f81b900416811561236657506007949350505050565b801561237757506002949350505050565b600061238286610cfc565b9050806000036123a857604051636ad0607560e01b815260048101879052602401610d7d565b60006123b26112d9565b65ffffffffffff1690508082106123d0575060009695505050505050565b60006123db886113f0565b90508181106123f257506001979650505050505050565b6123fb88612d23565b158061241b57506000888152600760205260409020805460019091015411155b1561242e57506003979650505050505050565b60008881526004602052604090206001015465ffffffffffff1660000361245d57506004979650505050505050565b506005979650505050505050565b60008061247a86868686612d5a565b6000818152600a60205260409020549091508015610b7e5760095460405163c4d252f560e01b8152600481018390526001600160a01b039091169063c4d252f590602401600060405180830381600087803b1580156124d857600080fd5b505af11580156124ec573d6000803e3d6000fd5b5050506000838152600a602052604081205550509050949350505050565b6000306001600160a01b037f00000000000000000000000000000000000000000000000000000000000000001614801561256357507f000000000000000000000000000000000000000000000000000000000000000046145b1561258d57507f000000000000000000000000000000000000000000000000000000000000000090565b610979604080517f8b73c3c69bb8fe3d512ecc4cf759cc79239f7b179b0ffacaa9a75d522b39400f60208201527f0000000000000000000000000000000000000000000000000000000000000000918101919091527f000000000000000000000000000000000000000000000000000000000000000060608201524660808201523060a082015260009060c00160405160208183030381529060405280519060200120905090565b6000806000835160410361266f5760208401516040850151606086015160001a61266188828585612e0b565b95509550955050505061267b565b50508151600091506002905b9250925092565b6000806000856001600160a01b031685856040516024016126a4929190613fa2565b60408051601f198184030181529181526020820180516001600160e01b0316630b135d3f60e11b179052516126d99190613fbb565b600060405180830381855afa9150503d8060008114612714576040519150601f19603f3d011682016040523d82523d6000602084013e612719565b606091505b509150915081801561272d57506020815110155b8015610d9257508051630b135d3f60e11b906127529083016020908101908401613d04565b149695505050505050565b60008581526007602090815260408083206001600160a01b03881684526003810190925282205460ff16156127b0576040516371c6af4960e01b81526001600160a01b0387166004820152602401610d7d565b6001600160a01b03861660009081526003820160205260409020805460ff1916600117905560ff85166127fc57838160000160008282546127f19190613e12565b909155506128559050565b60001960ff86160161281c57838160010160008282546127f19190613e12565b60011960ff86160161283c57838160020160008282546127f19190613e12565b6040516303599be160e11b815260040160405180910390fd5b509195945050505050565b60006001821161286e575090565b816001600160801b82106128875760809190911c9060401b5b6801000000000000000082106128a25760409190911c9060201b5b64010000000082106128b95760209190911c9060101b5b6201000082106128ce5760109190911c9060081b5b61010082106128e25760089190911c9060041b5b601082106128f55760049190911c9060021b5b600482106129015760011b5b600302600190811c9081858161291957612919613d34565b048201901c9050600181858161293157612931613d34565b048201901c9050600181858161294957612949613d34565b048201901c9050600181858161296157612961613d34565b048201901c9050600181858161297957612979613d34565b048201901c9050600181858161299157612991613d34565b048201901c90506129b08185816129aa576129aa613d34565b04821190565b90039392505050565b60005b81831015612a135760006129d08484612eda565b60008781526020902090915065ffffffffffff86169082015465ffffffffffff1611156129ff57809250612a0d565b612a0a816001613e12565b93505b506129bc565b509392505050565b6000808451831180612a2c57508284115b15612a3c575060009050806120d6565b6000612a49856001613e12565b84118015612a71575061060f60f31b612a658787016020015190565b6001600160f01b031916145b90506000612a828215156002613d1d565b612a8d906028613e12565b905080612a9a8787613bab565b03612abc57600080612aad898989612ef5565b90965094506120d69350505050565b6000809350935050506120d6565b600063ffffffff821115611b22576040516306dfcc6560e41b81526020600482015260248101839052604401610d7d565b606060ff8314612b1557612b0e83612fc3565b90506109ca565b818054612b2190613aaf565b80601f0160208091040260200160405190810160405280929190818152602001828054612b4d90613aaf565b8015612b9a5780601f10612b6f57610100808354040283529160200191612b9a565b820191906000526020600020905b815481529060010190602001808311612b7d57829003601f168201915b505050505090506109ca565b805115612bb65780518082602001fd5b60405163d6bda27560e01b815260040160405180910390fd5b825460009081908015612cc8576000612bed87611baa600185613bab565b805490915065ffffffffffff80821691600160301b90046001600160d01b0316908816821115612c3057604051632520601d60e01b815260040160405180910390fd5b8765ffffffffffff168265ffffffffffff1603612c6957825465ffffffffffff16600160301b6001600160d01b03891602178355612cba565b6040805180820190915265ffffffffffff808a1682526001600160d01b03808a1660208085019182528d54600181018f5560008f81529190912094519151909216600160301b029216919091179101555b94508593506120d692505050565b50506040805180820190915265ffffffffffff80851682526001600160d01b0380851660208085019182528854600181018a5560008a815291822095519251909316600160301b0291909316179201919091559050816120d6565b600081815260076020526040812060028101546001820154612d459190613e12565b612d5161092d85610cfc565b11159392505050565b600080612d69868686866114b3565b9050612db781612d79600761170c565b612d83600661170c565b612d8d600261170c565b6001612d9a600782613fd7565b612da59060026140d4565b612daf9190613bab565b18181861172f565b506000818152600460205260409081902080546001600160f81b0316600160f81b179055517f789cf55be980739dad1d0699b93b58e806b51c9d96619bfa8fe0a28abaa7b30c90610ceb9083815260200190565b600080807f7fffffffffffffffffffffffffffffff5d576e7357a4501ddfe92f46681b20a0841115612e465750600091506003905082612ed0565b604080516000808252602082018084528a905260ff891692820192909252606081018790526080810186905260019060a0016020604051602081039080840390855afa158015612e9a573d6000803e3d6000fd5b5050604051601f1901519150506001600160a01b038116612ec657506000925060019150829050612ed0565b9250600091508190505b9450945094915050565b6000612ee96002848418613d4a565b61137190848416613e12565b6000808481612f05866001613e12565b85118015612f2d575061060f60f31b612f218388016020015190565b6001600160f01b031916145b90506000612f3e8215156002613d1d565b9050600080612f4d838a613e12565b90505b87811015612fb2576000612f6f612f6a8784016020015190565b613002565b9050600f8160ff161115612f8f57600080975097505050505050506120d6565b612f9a601084613d1d565b60ff909116019150612fab81613b15565b9050612f50565b506001999098509650505050505050565b60606000612fd08361307b565b604080516020808252818301909252919250600091906020820181803683375050509182525060208101929092525090565b600060f882901c602f8111801561301c5750603a8160ff16105b1561302a57602f19016109ca565b60608160ff16118015613040575060678160ff16105b1561304e57605619016109ca565b60408160ff16118015613064575060478160ff16105b1561307257603619016109ca565b5060ff92915050565b600060ff8216601f8111156109ca57604051632cd44ac360e21b815260040160405180910390fd5b6000602082840312156130b557600080fd5b81356001600160e01b03198116811461137157600080fd5b6000602082840312156130df57600080fd5b5035919050565b60005b838110156131015781810151838201526020016130e9565b50506000910152565b600081518084526131228160208601602086016130e6565b601f01601f19169290920160200192915050565b602081526000611371602083018461310a565b6001600160a01b03811681146109e157600080fd5b634e487b7160e01b600052604160045260246000fd5b604051601f8201601f191681016001600160401b038111828210171561319c5761319c61315e565b604052919050565b60006001600160401b038211156131bd576131bd61315e565b50601f01601f191660200190565b60006131de6131d9846131a4565b613174565b90508281528383830111156131f257600080fd5b828260208301376000602084830101529392505050565b600082601f83011261321a57600080fd5b611371838335602085016131cb565b6000806000806080858703121561323f57600080fd5b843561324a81613149565b9350602085013561325a81613149565b92506040850135915060608501356001600160401b0381111561327c57600080fd5b61328887828801613209565b91505092959194509250565b60006001600160401b038211156132ad576132ad61315e565b5060051b60200190565b600082601f8301126132c857600080fd5b813560206132d86131d983613294565b82815260059290921b840181019181810190868411156132f757600080fd5b8286015b8481101561331b57803561330e81613149565b83529183019183016132fb565b509695505050505050565b600082601f83011261333757600080fd5b813560206133476131d983613294565b82815260059290921b8401810191818101908684111561336657600080fd5b8286015b8481101561331b578035835291830191830161336a565b600082601f83011261339257600080fd5b813560206133a26131d983613294565b82815260059290921b840181019181810190868411156133c157600080fd5b8286015b8481101561331b5780356001600160401b038111156133e45760008081fd5b6133f28986838b0101613209565b8452509183019183016133c5565b6000806000806080858703121561341657600080fd5b84356001600160401b038082111561342d57600080fd5b613439888389016132b7565b9550602087013591508082111561344f57600080fd5b61345b88838901613326565b9450604087013591508082111561347157600080fd5b5061347e87828801613381565b949793965093946060013593505050565b634e487b7160e01b600052602160045260246000fd5b600881106134c357634e487b7160e01b600052602160045260246000fd5b9052565b602081016109ca82846134a5565b600080604083850312156134e857600080fd5b8235915060208301356134fa81613149565b809150509250929050565b803560ff81168114610e5957600080fd5b6000806040838503121561352957600080fd5b8235915061353960208401613505565b90509250929050565b60008083601f84011261355457600080fd5b5081356001600160401b0381111561356b57600080fd5b60208301915083602082850101111561358357600080fd5b9250929050565b600080600080600080600060c0888a0312156135a557600080fd5b873596506135b560208901613505565b955060408801356135c581613149565b945060608801356001600160401b03808211156135e157600080fd5b6135ed8b838c01613542565b909650945060808a013591508082111561360657600080fd5b6136128b838c01613209565b935060a08a013591508082111561362857600080fd5b506136358a828b01613209565b91505092959891949750929550565b60008060008060006080868803121561365c57600080fd5b8535945061366c60208701613505565b935060408601356001600160401b038082111561368857600080fd5b61369489838a01613542565b909550935060608801359150808211156136ad57600080fd5b506136ba88828901613209565b9150509295509295909350565b600080600080606085870312156136dd57600080fd5b843593506136ed60208601613505565b925060408501356001600160401b0381111561370857600080fd5b61371487828801613542565b95989497509550505050565b6000806000806080858703121561373657600080fd5b84356001600160401b038082111561374d57600080fd5b613759888389016132b7565b9550602087013591508082111561376f57600080fd5b61377b88838901613326565b9450604087013591508082111561379157600080fd5b61379d88838901613381565b935060608701359150808211156137b357600080fd5b508501601f810187136137c557600080fd5b613288878235602084016131cb565b6000602082840312156137e657600080fd5b813561137181613149565b600081518084526020808501945080840160005b8381101561382157815187529582019590820190600101613805565b509495945050505050565b60ff60f81b8816815260e06020820152600061384b60e083018961310a565b828103604084015261385d818961310a565b606084018890526001600160a01b038716608085015260a0840186905283810360c0850152905061388e81856137f1565b9a9950505050505050505050565b600080600080608085870312156138b257600080fd5b843593506138c260208601613505565b925060408501356138d281613149565b915060608501356001600160401b0381111561327c57600080fd5b60008060006060848603121561390257600080fd5b833561390d81613149565b92506020840135915060408401356001600160401b0381111561392f57600080fd5b61393b86828701613209565b9150509250925092565b600080600080600060a0868803121561395d57600080fd5b853561396881613149565b9450602086013561397881613149565b935060408601356001600160401b038082111561399457600080fd5b6139a089838a01613326565b945060608801359150808211156139b657600080fd5b6139c289838a01613326565b935060808801359150808211156136ad57600080fd5b600080600080606085870312156139ee57600080fd5b84356139f981613149565b93506020850135925060408501356001600160401b0381111561370857600080fd5b60008060408385031215613a2e57600080fd5b8235613a3981613149565b946020939093013593505050565b600080600080600060a08688031215613a5f57600080fd5b8535613a6a81613149565b94506020860135613a7a81613149565b9350604086013592506060860135915060808601356001600160401b03811115613aa357600080fd5b6136ba88828901613209565b600181811c90821680613ac357607f821691505b602082108103613ae357634e487b7160e01b600052602260045260246000fd5b50919050565b634e487b7160e01b600052603260045260246000fd5b634e487b7160e01b600052601160045260246000fd5b600060018201613b2757613b27613aff565b5060010190565b600060208284031215613b4057600080fd5b81516001600160401b03811115613b5657600080fd5b8201601f81018413613b6757600080fd5b8051613b756131d9826131a4565b818152856020838501011115613b8a57600080fd5b6119408260208301602086016130e6565b8183823760009101908152919050565b818103818111156109ca576109ca613aff565b65ffffffffffff828116828216039080821115613bdd57613bdd613aff565b5092915050565b600060208284031215613bf657600080fd5b815165ffffffffffff8116811461137157600080fd5b65ffffffffffff818116838216019080821115613bdd57613bdd613aff565b600081518084526020808501945080840160005b838110156138215781516001600160a01b031687529582019590820190600101613c3f565b600081518084526020808501808196508360051b8101915082860160005b85811015613cac578284038952613c9a84835161310a565b98850198935090840190600101613c82565b5091979650505050505050565b608081526000613ccc6080830187613c2b565b8281036020840152613cde81876137f1565b90508281036040840152613cf28186613c64565b91505082606083015295945050505050565b600060208284031215613d1657600080fd5b5051919050565b80820281158282048414176109ca576109ca613aff565b634e487b7160e01b600052601260045260246000fd5b600082613d6757634e487b7160e01b600052601260045260246000fd5b500490565b83815260608101613d8060208301856134a5565b826040830152949350505050565b600060208284031215613da057600080fd5b8151801515811461137157600080fd5b84815260ff84166020820152826040820152608060608201526000610d92608083018461310a565b85815260ff8516602082015283604082015260a060608201526000613e0060a083018561310a565b828103608084015261227d818561310a565b808201808211156109ca576109ca613aff565b60006101208b8352602060018060a01b038c1681850152816040850152613e4e8285018c613c2b565b91508382036060850152613e62828b6137f1565b915083820360808501528189518084528284019150828160051b850101838c0160005b83811015613eb357601f19878403018552613ea183835161310a565b94860194925090850190600101613e85565b505086810360a0880152613ec7818c613c64565b9450505050508560c08401528460e0840152828103610100840152613eec818561310a565b9c9b505050505050505050505050565b60a081526000613f0f60a0830188613c2b565b8281036020840152613f2181886137f1565b90508281036040840152613f358187613c64565b60608401959095525050608001529392505050565b60c081526000613f5d60c0830189613c2b565b8281036020840152613f6f81896137f1565b90508281036040840152613f838188613c64565b60608401969096525050608081019290925260a0909101529392505050565b82815260406020820152600061136e604083018461310a565b60008251613fcd8184602087016130e6565b9190910192915050565b60ff81811683821601908111156109ca576109ca613aff565b600181815b8085111561402b57816000190482111561401157614011613aff565b8085161561401e57918102915b93841c9390800290613ff5565b509250929050565b600082614042575060016109ca565b8161404f575060006109ca565b8160018114614065576002811461406f5761408b565b60019150506109ca565b60ff84111561408057614080613aff565b50506001821b6109ca565b5060208310610133831016604e8410600b84101617156140ae575081810a6109ca565b6140b88383613ff0565b80600019048211156140cc576140cc613aff565b029392505050565b600061137160ff84168361403356fea2646970667358221220f2b2339a2fe2d7f5489a054a27c469d77d929aa33306e6f19443a0e83c73ef2864736f6c63430008140033",
  "linkReferences": {},
  "deployedLinkReferences": {}
}