{
  "_format": "hh-sol-artifact-1",
  "contractName": "GovToken",
  "sourceName": "contracts/GovToken.sol",
  "abi": [
    {
      "inputs": [],
      "stateMutability": "nonpayable",
      "type": "constructor"
    },
    {
      "inputs": [],
      "name": "CheckpointUnorderedInsertion",
      "type": "error"
    },
    {
      "inputs": [],
      "name": "ECDSAInvalidSignature",
      "type": "error"
    },
    {
      "inputs": [
        {
          "internalType": "uint256",
          "name": "length",
          "type": "uint256"
        }
      ],
      "name": "ECDSAInvalidSignatureLength",
      "type": "error"
    },
    {
      "inputs": [
        {
          "internalType": "bytes32",
          "name": "s",
          "type": "bytes32"
        }
      ],
      "name": "ECDSAInvalidSignatureS",
      "type": "error"
    },
    {
      "inputs": [
        {
          "internalType": "uint256",
          "name": "increasedSupply",
          "type": "uint256"
        },
        {
          "internalType": "uint256",
          "name": "cap",
          "type": "uint256"
        }
      ],
      "name": "ERC20ExceededSafeSupply",
      "type": "error"
    },
    {
      "inputs": [
        {
          "internalType": "address",
          "name": "spender",
          "type": "address"
        },
        {
          "internalType": "uint256",
          "name": "allowance",
          "type": "uint256"
        },
        {
          "internalType": "uint256",
          "name": "needed",
          "type": "uint256"
        }
      ],
      "name": "ERC20InsufficientAllowance",
      "type": "error"
    },
    {
      "inputs": [
        {
          "internalType": "address",
          "name": "sender",
          "type": "address"
        },
        {
          "internalType": "uint256",
          "name": "balance",
          "type": "uint256"
        },
        {
          "internalType": "uint256",
          "name": "needed",
          "type": "uint256"
        }
      ],
      "name": "ERC20InsufficientBalance",
      "type": "error"
    },
    {
      "inputs": [
        {
          "internalType": "address",
          "name": "approver",
          "type": "address"
        }
      ],
      "name": "ERC20InvalidApprover",
      "type": "error"
    },
    {
      "inputs": [
        {
          "internalType": "address",
          "name": "receiver",
          "type": "address"
        }
      ],
      "name": "ERC20InvalidReceiver",
      "type": "error"
    },
    {
      "inputs": [
        {
          "internalType": "address",
          "name": "sender",
          "type": "address"
        }
      ],
      "name": "ERC20InvalidSender",
      "type": "error"
    },
    {
      "inputs": [
        {
          "internalType": "address",
          "name": "spender",
          "type": "address"
        }
      ],
      "name": "ERC20InvalidSpender",
      "type": "error"
    },
    {
      "inputs": [
        {
          "internalType": "uint256",
          "name": "deadline",
          "type": "uint256"
        }
      ],
      "name": "ERC2612ExpiredSignature",
      "type": "error"
    },
    {
      "inputs": [
        {
          "internalType": "address",
          "name": "signer",
          "type": "address"
        },
        {
          "internalType": "address",
          "name": "owner",
          "type": "address"
        }
      ],
      "name": "ERC2612InvalidSigner",
      "type": "error"
    },
    {
      "inputs": [
        {
          "internalType": "uint256",
          "name": "timepoint",
          "type": "uint256"
        },
        {
          "internalType": "uint48",
          "name": "clock",
          "type": "uint48"
        }
      ],
      "name": "ERC5805FutureLookup",
      "type": "error"
    },
    {
      "inputs": [],
      "name": "ERC6372InconsistentClock",
      "type": "error"
    },
    {
      "inputs": [
        {
          "internalType": "address",
          "name": "account",
          "type": "address"
        },
        {
          "internalType": "uint256",
          "name": "currentNonce",
          "type": "uint256"
        }
      ],
      "name": "InvalidAccountNonce",
      "type": "error"
    },
    {
      "inputs": [],
      "name": "InvalidShortString",
      "type": "error"
    },
    {
      "inputs": [
        {
          "internalType": "uint8",
          "name": "bits",
          "type": "uint8"
        },
        {
          "internalType": "uint256",
          "name": "value",
          "type": "uint256"
        }
      ],
      "name": "SafeCastOverflowedUintDowncast",
      "type": "error"
    },
    {
      "inputs": [
        {
          "internalType": "string",
          "name": "str",
          "type": "string"
        }
      ],
      "name": "StringTooLong",
      "type": "error"
    },
    {
      "inputs": [
        {
          "internalType": "uint256",
          "name": "expiry",
          "type": "uint256"
        }
      ],
      "name": "VotesExpiredSignature",
      "type": "error"
    },
    {
      "anonymous": false,
      "inputs": [
        {
          "indexed": true,
          "internalType": "address",
          "name": "owner",
          "type": "address"
        },
        {
          "indexed": true,
          "internalType": "address",
          "name": "spender",
          "type": "address"
        },
        {
          "indexed": false,
          "internalType": "uint256",
          "name": "value",
          "type": "uint256"
        }
      ],
      "name": "Approval",
      "type": "event"
    },
    {
      "anonymous": false,
      "inputs": [
        {
          "indexed": true,
          "internalType": "address",
          "name": "delegator",
          "type": "address"
        },
        {
          "indexed": true,
          "internalType": "address",
          "name": "fromDelegate",
          "type": "address"
        },
        {
          "indexed": true,
          "internalType": "address",
          "name": "toDelegate",
          "type": "address"
        }
      ],
      "name": "DelegateChanged",
      "type": "event"
    },
    {
      "anonymous": false,
      "inputs": [
        {
          "indexed": true,
          "internalType": "address",
          "name": "delegate",
          "type": "address"
        },
        {
          "indexed": false,
          "internalType": "uint256",
          "name": "previousVotes",
          "type": "uint256"
        },
        {
          "indexed": false,
          "internalType": "uint256",
          "name": "newVotes",
          "type": "uint256"
        }
      ],
      "name": "DelegateVotesChanged",
      "type": "event"
    },
    {
      "anonymous": false,
      "inputs": [],
      "name": "EIP712DomainChanged",
      "type": "event"
    },
    {
      "anonymous": false,
      "inputs": [
        {
          "indexed": true,
          "internalType": "address",
          "name": "from",
          "type": "address"
        },
        {
          "indexed": true,
          "internalType": "address",
          "name": "to",
          "type": "address"
        },
        {
          "indexed": false,
          "internalType": "uint256",
          "name": "value",
          "type": "uint256"
        }
      ],
      "name": "Transfer",
      "type": "event"
    },
    {
      "inputs": [],
      "name": "CLOCK_MODE",
      "outputs": [
        {
          "internalType": "string",
          "name": "",
          "type": "string"
        }
      ],
      "stateMutability": "view",
      "type": "function"
    },
    {
      "inputs": [],
      "name": "DOMAIN_SEPARATOR",
      "outputs": [
        {
          "internalType": "bytes32",
          "name": "",
          "type": "bytes32"
        }
      ],
      "stateMutability": "view",
      "type": "function"
    },
    {
      "inputs": [
        {
          "internalType": "address",
          "name": "owner",
          "type": "address"
        },
        {
          "internalType": "address",
          "name": "spender",
          "type": "address"
        }
      ],
      "name": "allowance",
      "outputs": [
        {
          "internalType": "uint256",
          "name": "",
          "type": "uint256"
        }
      ],
      "stateMutability": "view",
      "type": "function"
    },
    {
      "inputs": [
        {
          "internalType": "address",
          "name": "spender",
          "type": "address"
        },
        {
          "internalType": "uint256",
          "name": "value",
          "type": "uint256"
        }
      ],
      "name": "approve",
      "outputs": [
        {
          "internalType": "bool",
          "name": "",
          "type": "bool"
        }
      ],
      "stateMutability": "nonpayable",
      "type": "function"
    },
    {
      "inputs": [
        {
          "internalType": "address",
          "name": "account",
          "type": "address"
        }
      ],
      "name": "balanceOf",
      "outputs": [
        {
          "internalType": "uint256",
          "name": "",
          "type": "uint256"
        }
      ],
      "stateMutability": "view",
      "type": "function"
    },
    {
      "inputs": [
        {
          "internalType": "address",
          "name": "account",
          "type": "address"
        },
        {
          "internalType": "uint32",
          "name": "pos",
          "type": "uint32"
        }
      ],
      "name": "checkpoints",
      "outputs": [
        {
          "components": [
            {
              "internalType": "uint48",
              "name": "_key",
              "type": "uint48"
            },
            {
              "internalType": "uint208",
              "name": "_value",
              "type": "uint208"
            }
          ],
          "internalType": "struct Checkpoints.Checkpoint208",
          "name": "",
          "type": "tuple"
        }
      ],
      "stateMutability": "view",
      "type": "function"
    },
    {
      "inputs": [],
      "name": "clock",
      "outputs": [
        {
          "internalType": "uint48",
          "name": "",
          "type": "uint48"
        }
      ],
      "stateMutability": "view",
      "type": "function"
    },
    {
      "inputs": [],
      "name": "decimals",
      "outputs": [
        {
          "internalType": "uint8",
          "name": "",
          "type": "uint8"
        }
      ],
      "stateMutability": "view",
      "type": "function"
    },
    {
      "inputs": [
        {
          "internalType": "address",
          "name": "delegatee",
          "type": "address"
        }
      ],
      "name": "delegate",
      "outputs": [],
      "stateMutability": "nonpayable",
      "type": "function"
    },
    {
      "inputs": [
        {
          "internalType": "address",
          "name": "delegatee",
          "type": "address"
        },
        {
          "internalType": "uint256",
          "name": "nonce",
          "type": "uint256"
        },
        {
          "internalType": "uint256",
          "name": "expiry",
          "type": "uint256"
        },
        {
          "internalType": "uint8",
          "name": "v",
          "type": "uint8"
        },
        {
          "internalType": "bytes32",
          "name": "r",
          "type": "bytes32"
        },
        {
          "internalType": "bytes32",
          "name": "s",
          "type": "bytes32"
        }
      ],
      "name": "delegateBySig",
      "outputs": [],
      "stateMutability": "nonpayable",
      "type": "function"
    },
    {
      "inputs": [
        {
          "internalType": "address",
          "name": "account",
          "type": "address"
        }
      ],
      "name": "delegates",
      "outputs": [
        {
          "internalType": "address",
          "name": "",
          "type": "address"
        }
      ],
      "stateMutability": "view",
      "type": "function"
    },
    {
      "inputs": [],
      "name": "eip712Domain",
      "outputs": [
        {
          "internalType": "bytes1",
          "name": "fields",
          "type": "bytes1"
        },
        {
          "internalType": "string",
          "name": "name",
          "type": "string"
        },
        {
          "internalType": "string",
          "name": "version",
          "type": "string"
        },
        {
          "internalType": "uint256",
          "name": "chainId",
          "type": "uint256"
        },
        {
          "internalType": "address",
          "name": "verifyingContract",
          "type": "address"
        },
        {
          "internalType": "bytes32",
          "name": "salt",
          "type": "bytes32"
        },
        {
          "internalType": "uint256[]",
          "name": "extensions",
          "type": "uint256[]"
        }
      ],
      "stateMutability": "view",
      "type": "function"
    },
    {
      "inputs": [
        {
          "internalType": "uint256",
          "name": "timepoint",
          "type": "uint256"
        }
      ],
      "name": "getPastTotalSupply",
      "outputs": [
        {
          "internalType": "uint256",
          "name": "",
          "type": "uint256"
        }
      ],
      "stateMutability": "view",
      "type": "function"
    },
    {
      "inputs": [
        {
          "internalType": "address",
          "name": "account",
          "type": "address"
        },
        {
          "internalType": "uint256",
          "name": "timepoint",
          "type": "uint256"
        }
      ],
      "name": "getPastVotes",
      "outputs": [
        {
          "internalType": "uint256",
          "name": "",
          "type": "uint256"
        }
      ],
      "stateMutability": "view",
      "type": "function"
    },
    {
      "inputs": [
        {
          "internalType": "address",
          "name": "account",
          "type": "address"
        }
      ],
      "name": "getVotes",
      "outputs": [
        {
          "internalType": "uint256",
          "name": "",
          "type": "uint256"
        }
      ],
      "stateMutability": "view",
      "type": "function"
    },
    {
      "inputs": [
        {
          "internalType": "address",
          "name": "to",
          "type": "address"
        },
        {
          "internalType": "uint256",
          "name": "amount",
          "type": "uint256"
        }
      ],
      "name": "mint",
      "outputs": [],
      "stateMutability": "nonpayable",
      "type": "function"
    },
    {
      "inputs": [],
      "name": "name",
      "outputs": [
        {
          "internalType": "string",
          "name": "",
          "type": "string"
        }
      ],
      "stateMutability": "view",
      "type": "function"
    },
    {
      "inputs": [
        {
          "internalType": "address",
          "name": "owner",
          "type": "address"
        }
      ],
      "name": "nonces",
      "outputs": [
        {
          "internalType": "uint256",
          "name": "",
          "type": "uint256"
        }
      ],
      "stateMutability": "view",
      "type": "function"
    },
    {
      "inputs": [
        {
          "internalType": "address",
          "name": "account",
          "type": "address"
        }
      ],
      "name": "numCheckpoints",
      "outputs": [
        {
          "internalType": "uint32",
          "name": "",
          "type": "uint32"
        }
      ],
      "stateMutability": "view",
      "type": "function"
    },
    {
      "inputs": [
        {
          "internalType": "address",
          "name": "owner",
          "type": "address"
        },
        {
          "internalType": "address",
          "name": "spender",
          "type": "address"
        },
        {
          "internalType": "uint256",
          "name": "value",
          "type": "uint256"
        },
        {
          "internalType": "uint256",
          "name": "deadline",
          "type": "uint256"
        },
        {
          "internalType": "uint8",
          "name": "v",
          "type": "uint8"
        },
        {
          "internalType": "bytes32",
          "name": "r",
          "type": "bytes32"
        },
        {
          "internalType": "bytes32",
          "name": "s",
          "type": "bytes32"
        }
      ],
      "name": "permit",
      "outputs": [],
      "stateMutability": "nonpayable",
      "type": "function"
    },
    {
      "inputs": [],
      "name": "symbol",
      "outputs": [
        {
          "internalType": "string",
          "name": "",
          "type": "string"
        }
      ],
      "stateMutability": "view",
      "type": "function"
    },
    {
      "inputs": [],
      "name": "totalSupply",
      "outputs": [
        {
          "internalType": "uint256",
          "name": "",
          "type": "uint256"
        }
      ],
      "stateMutability": "view",
      "type": "function"
    },
    {
      "inputs": [
        {
          "internalType": "address",
          "name": "to",
          "type": "address"
        },
        {
          "internalType": "uint256",
          "name": "value",
          "type": "uint256"
        }
      ],
      "name": "transfer",
      "outputs": [
        {
          "internalType": "bool",
          "name": "",
          "type": "bool"
        }
      ],
      "stateMutability": "nonpayable",
      "type": "function"
    },
    {
      "inputs": [
        {
          "internalType": "address",
          "name": "from",
          "type": "address"
        },
        {
          "internalType": "address",
          "name": "to",
          "type": "address"
        },
        {
          "internalType": "uint256",
          "name": "value",
          "type": "uint256"
        }
      ],
      "name": "transferFrom",
      "outputs": [
        {
          "internalType": "bool",
          "name": "",
          "type": "bool"
        }
      ],
      "stateMutability": "nonpayable",
      "type": "function"
    }
  ],
  "bytecode": "0x6101606040523480156200001257600080fd5b506040518060400160405280600881526020016723b7bb2a37b5b2b760c11b81525080604051806040016040528060018152602001603160f81b8152506040518060400160405280600881526020016723b7bb2a37b5b2b760c11b8152506040518060400160405280600281526020016111d560f21b81525081600390816200009c91906200095d565b506004620000ab82826200095d565b50620000bd9150839050600562000193565b61012052620000ce81600662000193565b61014052815160208084019190912060e052815190820120610100524660a0526200015c60e05161010051604080517f8b73c3c69bb8fe3d512ecc4cf759cc79239f7b179b0ffacaa9a75d522b39400f60208201529081019290925260608201524660808201523060a082015260009060c00160405160208183030381529060405280519060200120905090565b60805250503060c052506200018d33620001796012600a62000b3c565b62000187906103e862000b4d565b620001cc565b62000c55565b6000602083511015620001b357620001ab836200020e565b9050620001c6565b81620001c084826200095d565b5060ff90505b92915050565b6001600160a01b038216620001fc5760405163ec442f0560e01b8152600060048201526024015b60405180910390fd5b6200020a6000838362000251565b5050565b600080829050601f815111156200023c578260405163305a27a960e01b8152600401620001f3919062000b67565b8051620002498262000bb7565b179392505050565b6200025e83838362000263565b505050565b62000270838383620002d2565b6001600160a01b038316620002c55760006200028b60025490565b90506001600160d01b0380821115620002c257604051630e58ae9360e11b81526004810183905260248101829052604401620001f3565b50505b6200025e83838362000405565b6001600160a01b03831662000301578060026000828254620002f5919062000bdc565b90915550620003759050565b6001600160a01b03831660009081526020819052604090205481811015620003565760405163391434e360e21b81526001600160a01b03851660048201526024810182905260448101839052606401620001f3565b6001600160a01b03841660009081526020819052604090209082900390555b6001600160a01b0382166200039357600280548290039055620003b2565b6001600160a01b03821660009081526020819052604090208054820190555b816001600160a01b0316836001600160a01b03167fddf252ad1be2c89b69c2b068fc378daa952ba7f163c4a11628f55a4df523b3ef83604051620003f891815260200190565b60405180910390a3505050565b6001600160a01b0383166200043a5762000437600a620008746200049d60201b176200043184620004b2565b620004ec565b50505b6001600160a01b038216620004695762000466600a620008806200052960201b176200043184620004b2565b50505b6001600160a01b038381166000908152600860205260408082205485841683529120546200025e9291821691168362000537565b6000620004ab828462000bf2565b9392505050565b60006001600160d01b03821115620004e8576040516306dfcc6560e41b815260d0600482015260248101839052604401620001f3565b5090565b6000806200051c620004fd6200069e565b620005136200050c88620006af565b868860201c565b879190620006fe565b915091505b935093915050565b6000620004ab828462000c1c565b816001600160a01b0316836001600160a01b0316141580156200055a5750600081115b156200025e576001600160a01b03831615620005fd576001600160a01b038316600090815260096020908152604082208291620005a8919062000529901b62000880176200043186620004b2565b6001600160d01b031691506001600160d01b03169150846001600160a01b031660008051602062002a908339815191528383604051620005f2929190918252602082015260400190565b60405180910390a250505b6001600160a01b038216156200025e576001600160a01b0382166000908152600960209081526040822082916200064591906200049d901b62000874176200043186620004b2565b6001600160d01b031691506001600160d01b03169150836001600160a01b031660008051602062002a9083398151915283836040516200068f929190918252602082015260400190565b60405180910390a25050505050565b6000620006aa6200070e565b905090565b80546000908015620006f557620006db83620006cd60018462000c3f565b600091825260209091200190565b54660100000000000090046001600160d01b0316620004ab565b60009392505050565b6000806200051c8585856200071b565b6000620006aa4362000884565b825460009081908015620008255760006200073d87620006cd60018562000c3f565b805490915065ffffffffffff80821691660100000000000090046001600160d01b03169088168211156200078457604051632520601d60e01b815260040160405180910390fd5b8765ffffffffffff168265ffffffffffff1603620007c257825465ffffffffffff1666010000000000006001600160d01b0389160217835562000816565b6040805180820190915265ffffffffffff808a1682526001600160d01b03808a1660208085019182528d54600181018f5560008f815291909120945191519092166601000000000000029216919091179101555b94508593506200052192505050565b50506040805180820190915265ffffffffffff80851682526001600160d01b0380851660208085019182528854600181018a5560008a815291822095519251909316660100000000000002919093161792019190915590508162000521565b600065ffffffffffff821115620004e8576040516306dfcc6560e41b81526030600482015260248101839052604401620001f3565b634e487b7160e01b600052604160045260246000fd5b600181811c90821680620008e457607f821691505b6020821081036200090557634e487b7160e01b600052602260045260246000fd5b50919050565b601f8211156200025e57600081815260208120601f850160051c81016020861015620009345750805b601f850160051c820191505b81811015620009555782815560010162000940565b505050505050565b81516001600160401b03811115620009795762000979620008b9565b62000991816200098a8454620008cf565b846200090b565b602080601f831160018114620009c95760008415620009b05750858301515b600019600386901b1c1916600185901b17855562000955565b600085815260208120601f198616915b82811015620009fa57888601518255948401946001909101908401620009d9565b508582101562000a195787850151600019600388901b60f8161c191681555b5050505050600190811b01905550565b634e487b7160e01b600052601160045260246000fd5b600181815b8085111562000a8057816000190482111562000a645762000a6462000a29565b8085161562000a7257918102915b93841c939080029062000a44565b509250929050565b60008262000a9957506001620001c6565b8162000aa857506000620001c6565b816001811462000ac1576002811462000acc5762000aec565b6001915050620001c6565b60ff84111562000ae05762000ae062000a29565b50506001821b620001c6565b5060208310610133831016604e8410600b841016171562000b11575081810a620001c6565b62000b1d838362000a3f565b806000190482111562000b345762000b3462000a29565b029392505050565b6000620004ab60ff84168362000a88565b8082028115828204841417620001c657620001c662000a29565b600060208083528351808285015260005b8181101562000b965785810183015185820160400152820162000b78565b506000604082860101526040601f19601f8301168501019250505092915050565b80516020808301519190811015620009055760001960209190910360031b1b16919050565b80820180821115620001c657620001c662000a29565b6001600160d01b0381811683821601908082111562000c155762000c1562000a29565b5092915050565b6001600160d01b0382811682821603908082111562000c155762000c1562000a29565b81810381811115620001c657620001c662000a29565b60805160a05160c05160e051610100516101205161014051611de062000cb06000396000610cd301526000610ca601526000610a5601526000610a2e01526000610989015260006109b3015260006109dd0152611de06000f3fe608060405234801561001057600080fd5b50600436106101585760003560e01c806370a08231116100c35780639ab24eb01161007c5780639ab24eb01461031a578063a9059cbb1461032d578063c3cda52014610340578063d505accf14610353578063dd62ed3e14610366578063f1127ed81461039f57600080fd5b806370a08231146102895780637ecebe00146102b257806384b0196e146102c55780638e539e8c146102e057806391ddadf4146102f357806395d89b411461031257600080fd5b80633a46b1a8116101155780633a46b1a8146101da57806340c10f19146101ed5780634bf5d7e914610202578063587cde1e1461020a5780635c19a95c1461024e5780636fcfff451461026157600080fd5b806306fdde031461015d578063095ea7b31461017b57806318160ddd1461019e57806323b872dd146101b0578063313ce567146101c35780633644e515146101d2575b600080fd5b6101656103de565b60405161017291906119e4565b60405180910390f35b61018e610189366004611a13565b610470565b6040519015158152602001610172565b6002545b604051908152602001610172565b61018e6101be366004611a3d565b61048a565b60405160128152602001610172565b6101a26104ae565b6101a26101e8366004611a13565b6104bd565b6102006101fb366004611a13565b6104f9565b005b610165610507565b610236610218366004611a79565b6001600160a01b039081166000908152600860205260409020541690565b6040516001600160a01b039091168152602001610172565b61020061025c366004611a79565b61057f565b61027461026f366004611a79565b61058a565b60405163ffffffff9091168152602001610172565b6101a2610297366004611a79565b6001600160a01b031660009081526020819052604090205490565b6101a26102c0366004611a79565b610595565b6102cd6105a0565b6040516101729796959493929190611a94565b6101a26102ee366004611b2a565b6105e6565b6102fb61060b565b60405165ffffffffffff9091168152602001610172565b610165610615565b6101a2610328366004611a79565b610624565b61018e61033b366004611a13565b610645565b61020061034e366004611b54565b610653565b610200610361366004611bac565b610715565b6101a2610374366004611c16565b6001600160a01b03918216600090815260016020908152604080832093909416825291909152205490565b6103b26103ad366004611c49565b61084f565b60408051825165ffffffffffff1681526020928301516001600160d01b03169281019290925201610172565b6060600380546103ed90611c89565b80601f016020809104026020016040519081016040528092919081815260200182805461041990611c89565b80156104665780601f1061043b57610100808354040283529160200191610466565b820191906000526020600020905b81548152906001019060200180831161044957829003601f168201915b5050505050905090565b60003361047e81858561088c565b60019150505b92915050565b60003361049885828561089e565b6104a385858561091d565b506001949350505050565b60006104b861097c565b905090565b60006104e96104cb83610aa7565b6001600160a01b038516600090815260096020526040902090610af6565b6001600160d01b03169392505050565b6105038282610bac565b5050565b6060610511610be2565b65ffffffffffff1661052161060b565b65ffffffffffff1614610547576040516301bfc1c560e61b815260040160405180910390fd5b5060408051808201909152601d81527f6d6f64653d626c6f636b6e756d6265722666726f6d3d64656661756c74000000602082015290565b336105038183610bed565b600061048482610c5f565b600061048482610c81565b6000606080600080600060606105b4610c9f565b6105bc610ccc565b60408051600080825260208201909252600f60f81b9b939a50919850469750309650945092509050565b60006105fc6105f483610aa7565b600a90610af6565b6001600160d01b031692915050565b60006104b8610be2565b6060600480546103ed90611c89565b6001600160a01b03811660009081526009602052604081206105fc90610cf9565b60003361047e81858561091d565b8342111561067c57604051632341d78760e11b8152600481018590526024015b60405180910390fd5b604080517fe48329057bfd03d55e49b547132e39cffd9c1820ad7b9d4c5307691425d15adf60208201526001600160a01b0388169181019190915260608101869052608081018590526000906106f6906106ee9060a00160405160208183030381529060405280519060200120610d32565b858585610d5f565b90506107028187610d8d565b61070c8188610bed565b50505050505050565b834211156107395760405163313c898160e11b815260048101859052602401610673565b60007f6e71edae12b1b97f4d1f60370fef10105fa2faae0126114a169c64845d6126c98888886107868c6001600160a01b0316600090815260076020526040902080546001810190915590565b6040805160208101969096526001600160a01b0394851690860152929091166060840152608083015260a082015260c0810186905260e00160405160208183030381529060405280519060200120905060006107e182610d32565b905060006107f182878787610d5f565b9050896001600160a01b0316816001600160a01b031614610838576040516325c0072360e11b81526001600160a01b0380831660048301528b166024820152604401610673565b6108438a8a8a61088c565b50505050505050505050565b604080518082019091526000808252602082015261086d8383610de0565b9392505050565b600061086d8284611cd9565b600061086d8284611d00565b6108998383836001610e16565b505050565b6001600160a01b03838116600090815260016020908152604080832093861683529290522054600019811015610917578181101561090857604051637dc7a0d960e11b81526001600160a01b03841660048201526024810182905260448101839052606401610673565b61091784848484036000610e16565b50505050565b6001600160a01b03831661094757604051634b637e8f60e11b815260006004820152602401610673565b6001600160a01b0382166109715760405163ec442f0560e01b815260006004820152602401610673565b610899838383610eeb565b6000306001600160a01b037f0000000000000000000000000000000000000000000000000000000000000000161480156109d557507f000000000000000000000000000000000000000000000000000000000000000046145b156109ff57507f000000000000000000000000000000000000000000000000000000000000000090565b6104b8604080517f8b73c3c69bb8fe3d512ecc4cf759cc79239f7b179b0ffacaa9a75d522b39400f60208201527f0000000000000000000000000000000000000000000000000000000000000000918101919091527f000000000000000000000000000000000000000000000000000000000000000060608201524660808201523060a082015260009060c00160405160208183030381529060405280519060200120905090565b600080610ab261060b565b90508065ffffffffffff168310610aed57604051637669fc0f60e11b81526004810184905265ffffffffffff82166024820152604401610673565b61086d83610ef6565b815460009081816005811115610b55576000610b1184610f2d565b610b1b9085611d20565b60008881526020902090915081015465ffffffffffff9081169087161015610b4557809150610b53565b610b50816001611d33565b92505b505b6000610b6387878585611086565b90508015610b9e57610b8887610b7a600184611d20565b600091825260209091200190565b54600160301b90046001600160d01b0316610ba1565b60005b979650505050505050565b6001600160a01b038216610bd65760405163ec442f0560e01b815260006004820152602401610673565b61050360008383610eeb565b60006104b843610ef6565b6001600160a01b0382811660008181526008602052604080822080548686166001600160a01b0319821681179092559151919094169392849290917f3134e8a2e6d97e929a7e54011ea5485d7d196dd5f0ba4d4ef95803e8e3fc257f9190a46108998183610c5a866110e8565b611106565b6001600160a01b03811660009081526009602052604081205461048490611272565b6001600160a01b038116600090815260076020526040812054610484565b60606104b87f000000000000000000000000000000000000000000000000000000000000000060056112a3565b60606104b87f000000000000000000000000000000000000000000000000000000000000000060066112a3565b80546000908015610d2957610d1383610b7a600184611d20565b54600160301b90046001600160d01b031661086d565b60009392505050565b6000610484610d3f61097c565b8360405161190160f01b8152600281019290925260228201526042902090565b600080600080610d718888888861134e565b925092509250610d81828261141d565b50909695505050505050565b6001600160a01b0382166000908152600760205260409020805460018101909155818114610899576040516301d4b62360e61b81526001600160a01b038416600482015260248101829052604401610673565b60408051808201909152600080825260208201526001600160a01b038316600090815260096020526040902061086d90836114d6565b6001600160a01b038416610e405760405163e602df0560e01b815260006004820152602401610673565b6001600160a01b038316610e6a57604051634a1406b160e11b815260006004820152602401610673565b6001600160a01b038085166000908152600160209081526040808320938716835292905220829055801561091757826001600160a01b0316846001600160a01b03167f8c5be1e5ebec7d5bd14f71427d1e84f3dd0314c0f7b2291e5b200ac8c7c3b92584604051610edd91815260200190565b60405180910390a350505050565b610899838383611546565b600065ffffffffffff821115610f29576040516306dfcc6560e41b81526030600482015260248101839052604401610673565b5090565b600060018211610f3b575090565b816001600160801b8210610f545760809190911c9060401b5b680100000000000000008210610f6f5760409190911c9060201b5b6401000000008210610f865760209190911c9060101b5b620100008210610f9b5760109190911c9060081b5b6101008210610faf5760089190911c9060041b5b60108210610fc25760049190911c9060021b5b60048210610fce5760011b5b600302600190811c90818581610fe657610fe6611d46565b048201901c90506001818581610ffe57610ffe611d46565b048201901c9050600181858161101657611016611d46565b048201901c9050600181858161102e5761102e611d46565b048201901c9050600181858161104657611046611d46565b048201901c9050600181858161105e5761105e611d46565b048201901c905061107d81858161107757611077611d46565b04821190565b90039392505050565b60005b818310156110e057600061109d84846115ad565b60008781526020902090915065ffffffffffff86169082015465ffffffffffff1611156110cc578092506110da565b6110d7816001611d33565b93505b50611089565b509392505050565b6001600160a01b038116600090815260208190526040812054610484565b816001600160a01b0316836001600160a01b0316141580156111285750600081115b15610899576001600160a01b038316156111d0576001600160a01b0383166000908152600960205260408120819061116b90610880611166866115c8565b6115fc565b6001600160d01b031691506001600160d01b03169150846001600160a01b03167fdec2bacdd2f05b59de34da9b523dff8be42e5e38e818c82fdb0bae774387a72483836040516111c5929190918252602082015260400190565b60405180910390a250505b6001600160a01b03821615610899576001600160a01b0382166000908152600960205260408120819061120990610874611166866115c8565b6001600160d01b031691506001600160d01b03169150836001600160a01b03167fdec2bacdd2f05b59de34da9b523dff8be42e5e38e818c82fdb0bae774387a7248383604051611263929190918252602082015260400190565b60405180910390a25050505050565b600063ffffffff821115610f29576040516306dfcc6560e41b81526020600482015260248101839052604401610673565b606060ff83146112bd576112b683611635565b9050610484565b8180546112c990611c89565b80601f01602080910402602001604051908101604052809291908181526020018280546112f590611c89565b80156113425780601f1061131757610100808354040283529160200191611342565b820191906000526020600020905b81548152906001019060200180831161132557829003601f168201915b50505050509050610484565b600080807f7fffffffffffffffffffffffffffffff5d576e7357a4501ddfe92f46681b20a08411156113895750600091506003905082611413565b604080516000808252602082018084528a905260ff891692820192909252606081018790526080810186905260019060a0016020604051602081039080840390855afa1580156113dd573d6000803e3d6000fd5b5050604051601f1901519150506001600160a01b03811661140957506000925060019150829050611413565b9250600091508190505b9450945094915050565b600082600381111561143157611431611d5c565b0361143a575050565b600182600381111561144e5761144e611d5c565b0361146c5760405163f645eedf60e01b815260040160405180910390fd5b600282600381111561148057611480611d5c565b036114a15760405163fce698f760e01b815260048101829052602401610673565b60038260038111156114b5576114b5611d5c565b03610503576040516335e2f38360e21b815260048101829052602401610673565b6040805180820190915260008082526020820152826000018263ffffffff168154811061150557611505611d72565b60009182526020918290206040805180820190915291015465ffffffffffff81168252600160301b90046001600160d01b0316918101919091529392505050565b611551838383611674565b6001600160a01b0383166115a257600061156a60025490565b90506001600160d01b038082111561159f57604051630e58ae9360e11b81526004810183905260248101829052604401610673565b50505b61089983838361179e565b60006115bc6002848418611d88565b61086d90848416611d33565b60006001600160d01b03821115610f29576040516306dfcc6560e41b815260d0600482015260248101839052604401610673565b60008061162861160a61060b565b61162061161688610cf9565b868863ffffffff16565b879190611814565b915091505b935093915050565b6060600061164283611822565b604080516020808252818301909252919250600091906020820181803683375050509182525060208101929092525090565b6001600160a01b03831661169f5780600260008282546116949190611d33565b909155506117119050565b6001600160a01b038316600090815260208190526040902054818110156116f25760405163391434e360e21b81526001600160a01b03851660048201526024810182905260448101839052606401610673565b6001600160a01b03841660009081526020819052604090209082900390555b6001600160a01b03821661172d5760028054829003905561174c565b6001600160a01b03821660009081526020819052604090208054820190555b816001600160a01b0316836001600160a01b03167fddf252ad1be2c89b69c2b068fc378daa952ba7f163c4a11628f55a4df523b3ef8360405161179191815260200190565b60405180910390a3505050565b6001600160a01b0383166117c0576117bd600a610874611166846115c8565b50505b6001600160a01b0382166117e2576117df600a610880611166846115c8565b50505b6001600160a01b0383811660009081526008602052604080822054858416835291205461089992918216911683611106565b60008061162885858561184a565b600060ff8216601f81111561048457604051632cd44ac360e21b815260040160405180910390fd5b82546000908190801561194357600061186887610b7a600185611d20565b805490915065ffffffffffff80821691600160301b90046001600160d01b03169088168211156118ab57604051632520601d60e01b815260040160405180910390fd5b8765ffffffffffff168265ffffffffffff16036118e457825465ffffffffffff16600160301b6001600160d01b03891602178355611935565b6040805180820190915265ffffffffffff808a1682526001600160d01b03808a1660208085019182528d54600181018f5560008f81529190912094519151909216600160301b029216919091179101555b945085935061162d92505050565b50506040805180820190915265ffffffffffff80851682526001600160d01b0380851660208085019182528854600181018a5560008a815291822095519251909316600160301b02919093161792019190915590508161162d565b6000815180845260005b818110156119c4576020818501810151868301820152016119a8565b506000602082860101526020601f19601f83011685010191505092915050565b60208152600061086d602083018461199e565b80356001600160a01b0381168114611a0e57600080fd5b919050565b60008060408385031215611a2657600080fd5b611a2f836119f7565b946020939093013593505050565b600080600060608486031215611a5257600080fd5b611a5b846119f7565b9250611a69602085016119f7565b9150604084013590509250925092565b600060208284031215611a8b57600080fd5b61086d826119f7565b60ff60f81b881681526000602060e081840152611ab460e084018a61199e565b8381036040850152611ac6818a61199e565b606085018990526001600160a01b038816608086015260a0850187905284810360c0860152855180825283870192509083019060005b81811015611b1857835183529284019291840191600101611afc565b50909c9b505050505050505050505050565b600060208284031215611b3c57600080fd5b5035919050565b803560ff81168114611a0e57600080fd5b60008060008060008060c08789031215611b6d57600080fd5b611b76876119f7565b95506020870135945060408701359350611b9260608801611b43565b92506080870135915060a087013590509295509295509295565b600080600080600080600060e0888a031215611bc757600080fd5b611bd0886119f7565b9650611bde602089016119f7565b95506040880135945060608801359350611bfa60808901611b43565b925060a0880135915060c0880135905092959891949750929550565b60008060408385031215611c2957600080fd5b611c32836119f7565b9150611c40602084016119f7565b90509250929050565b60008060408385031215611c5c57600080fd5b611c65836119f7565b9150602083013563ffffffff81168114611c7e57600080fd5b809150509250929050565b600181811c90821680611c9d57607f821691505b602082108103611cbd57634e487b7160e01b600052602260045260246000fd5b50919050565b634e487b7160e01b600052601160045260246000fd5b6001600160d01b03818116838216019080821115611cf957611cf9611cc3565b5092915050565b6001600160d01b03828116828216039080821115611cf957611cf9611cc3565b8181038181111561048457610484611cc3565b8082018082111561048457610484611cc3565b634e487b7160e01b600052601260045260246000fd5b634e487b7160e01b600052602160045260246000fd5b634e487b7160e01b600052603260045260246000fd5b600082611da557634e487b7160e01b600052601260045260246000fd5b50049056fea264697066735822122054150d4a9bb549f0d9104ac42c85c6c319d0b5899dcbb84f140ab9b5e7259f8764736f6c63430008140033dec2bacdd2f05b59de34da9b523dff8be42e5e38e818c82fdb0bae774387a724",
  "linkReferences": {},
  "deployedLinkReferences": {}
}