{
  "_format": "hh-sol-artifact-1",
  "contractName": "CrowdFund",
  "sourceName": "contracts/CrowdFund.sol",
  "abi": [
    {
      "inputs": [
        {
          "internalType": "address",
          "name": "initialOwner",
          "type": "address"
        }
      ],
      "stateMutability": "nonpayable",
      "type": "constructor"
    },
    {
      "inputs": [
        {
          "internalType": "address",
          "name": "owner",
          "type": "address"
        }
      ],
      "name": "OwnableInvalidOwner",
      "type": "error"
    },
    {
      "inputs": [
        {
          "internalType": "address",
          "name": "account",
          "type": "address"
        }
      ],
      "name": "OwnableUnauthorizedAccount",
      "type": "error"
    },
    {
      "anonymous": false,
      "inputs": [
        {
          "indexed": true,
          "internalType": "uint256",
          "name": "pid",
          "type": "uint256"
        },
        {
          "indexed": false,
          "internalType": "address",
          "name": "contributor",
          "type": "address"
        },
        {
          "indexed": false,
          "internalType": "uint256",
          "name": "amount",
          "type": "uint256"
        }
      ],
      "name": "Contributed",
      "type": "event"
    },
    {
      "anonymous": false,
      "inputs": [
        {
          "indexed": true,
          "internalType": "address",
          "name": "previousOwner",
          "type": "address"
        },
        {
          "indexed": true,
          "internalType": "address",
          "name": "newOwner",
          "type": "address"
        }
      ],
      "name": "OwnershipTransferred",
      "type": "event"
    },
    {
      "anonymous": false,
      "inputs": [
        {
          "indexed": true,
          "internalType": "uint256",
          "name": "pid",
          "type": "uint256"
        },
        {
          "indexed": false,
          "internalType": "address",
          "name": "owner",
          "type": "address"
        },
        {
          "indexed": false,
          "internalType": "uint256",
          "name": "goal",
          "type": "uint256"
        },
        {
          "indexed": false,
          "internalType": "uint256",
          "name": "deadline",
          "type": "uint256"
        }
      ],
      "name": "ProjectCreated",
      "type": "event"
    },
    {
      "anonymous": false,
      "inputs": [
        {
          "indexed": true,
          "internalType": "uint256",
          "name": "pid",
          "type": "uint256"
        },
        {
          "indexed": false,
          "internalType": "address",
          "name": "contributor",
          "type": "address"
        },
        {
          "indexed": false,
          "internalType": "uint256",
          "name": "amount",
          "type": "uint256"
        }
      ],
      "name": "Refunded",
      "type": "event"
    },
    {
      "anonymous": false,
      "inputs": [
        {
          "indexed": true,
          "internalType": "uint256",
          "name": "pid",
          "type": "uint256"
        },
        {
          "indexed": false,
          "internalType": "uint256",
          "name": "amount",
          "type": "uint256"
        }
      ],
      "name": "Withdrawn",
      "type": "event"
    },
    {
      "inputs": [
        {
          "internalType": "uint256",
          "name": "_pid",
          "type": "uint256"
        }
      ],
      "name": "claimRefund",
      "outputs": [],
      "stateMutability": "nonpayable",
      "type": "function"
    },
    {
      "inputs": [
        {
          "internalType": "uint256",
          "name": "_pid",
          "type": "uint256"
        }
      ],
      "name": "contribute",
      "outputs": [],
      "stateMutability": "payable",
      "type": "function"
    },
    {
      "inputs": [
        {
          "internalType": "uint256",
          "name": "",
          "type": "uint256"
        },
        {
          "internalType": "address",
          "name": "",
          "type": "address"
        }
      ],
      "name": "contributions",
      "outputs": [
        {
          "internalType": "uint256",
          "name": "",
          "type": "uint256"
        }
      ],
      "stateMutability": "view",
      "type": "function"
    },
    {
      "inputs": [
        {
          "internalType": "uint256",
          "name": "_pid",
          "type": "uint256"
        },
        {
          "internalType": "address",
          "name": "_owner",
          "type": "address"
        },
        {
          "internalType": "uint256",
          "name": "_goal",
          "type": "uint256"
        },
        {
          "internalType": "uint256",
          "name": "_durationDays",
          "type": "uint256"
        }
      ],
      "name": "createProject",
      "outputs": [],
      "stateMutability": "nonpayable",
      "type": "function"
    },
    {
      "inputs": [],
      "name": "owner",
      "outputs": [
        {
          "internalType": "address",
          "name": "",
          "type": "address"
        }
      ],
      "stateMutability": "view",
      "type": "function"
    },
    {
      "inputs": [],
      "name": "projectCount",
      "outputs": [
        {
          "internalType": "uint256",
          "name": "",
          "type": "uint256"
        }
      ],
      "stateMutability": "view",
      "type": "function"
    },
    {
      "inputs": [
        {
          "internalType": "uint256",
          "name": "",
          "type": "uint256"
        }
      ],
      "name": "projects",
      "outputs": [
        {
          "internalType": "address",
          "name": "owner",
          "type": "address"
        },
        {
          "internalType": "uint256",
          "name": "goal",
          "type": "uint256"
        },
        {
          "internalType": "uint256",
          "name": "deadline",
          "type": "uint256"
        },
        {
          "internalType": "uint256",
          "name": "raised",
          "type": "uint256"
        },
        {
          "internalType": "bool",
          "name": "approved",
          "type": "bool"
        },
        {
          "internalType": "bool",
          "name": "completed",
          "type": "bool"
        }
      ],
      "stateMutability": "view",
      "type": "function"
    },
    {
      "inputs": [],
      "name": "renounceOwnership",
      "outputs": [],
      "stateMutability": "nonpayable",
      "type": "function"
    },
    {
      "inputs": [
        {
          "internalType": "address",
          "name": "newOwner",
          "type": "address"
        }
      ],
      "name": "transferOwnership",
      "outputs": [],
      "stateMutability": "nonpayable",
      "type": "function"
    },
    {
      "inputs": [
        {
          "internalType": "uint256",
          "name": "_pid",
          "type": "uint256"
        }
      ],
      "name": "withdraw",
      "outputs": [],
      "stateMutability": "nonpayable",
      "type": "function"
    }
  ],
  "bytecode": "0x608060405234801561001057600080fd5b50604051610bc8380380610bc883398101604081905261002f916100be565b806001600160a01b03811661005e57604051631e4fbdf760e01b81526000600482015260240160405180910390fd5b6100678161006e565b50506100ee565b600080546001600160a01b038381166001600160a01b0319831681178455604051919092169283917f8be0079c531659141344cd1fd0a4f28419497f9722a3daafe3b4186f6b6457e09190a35050565b6000602082840312156100d057600080fd5b81516001600160a01b03811681146100e757600080fd5b9392505050565b610acb806100fd6000396000f3fe6080604052600436106100915760003560e01c80635b7baf64116100595780635b7baf64146101d5578063715018a6146101f55780638da5cb5b1461020a578063c1cbbca714610232578063f2fde38b1461024557600080fd5b8063107046bd146100965780632e1a7d4d1461013757806331752fa51461015957806336fbad26146101795780633d891f591461019d575b600080fd5b3480156100a257600080fd5b506100f76100b1366004610978565b6001602081905260009182526040909120805491810154600282015460038301546004909301546001600160a01b03909416939192909160ff8082169161010090041686565b604080516001600160a01b039097168752602087019590955293850192909252606084015215156080830152151560a082015260c0015b60405180910390f35b34801561014357600080fd5b50610157610152366004610978565b610265565b005b34801561016557600080fd5b506101576101743660046109ad565b610429565b34801561018557600080fd5b5061018f60035481565b60405190815260200161012e565b3480156101a957600080fd5b5061018f6101b83660046109e8565b600260209081526000928352604080842090915290825290205481565b3480156101e157600080fd5b506101576101f0366004610978565b6105c9565b34801561020157600080fd5b5061015761073f565b34801561021657600080fd5b506000546040516001600160a01b03909116815260200161012e565b610157610240366004610978565b610753565b34801561025157600080fd5b50610157610260366004610a14565b6108bd565b600081815260016020526040902080546001600160a01b031633146102bd5760405162461bcd60e51b81526020600482015260096024820152682737ba1037bbb732b960b91b60448201526064015b60405180910390fd5b80600201544210156103035760405162461bcd60e51b815260206004820152600f60248201526e46756e64696e67206f6e676f696e6760881b60448201526064016102b4565b80600101548160030154101561034a5760405162461bcd60e51b815260206004820152600c60248201526b11dbd85b081b9bdd081b595d60a21b60448201526064016102b4565b6004810154610100900460ff16156103985760405162461bcd60e51b815260206004820152601160248201527020b63932b0b23c903bb4ba34323930bbb760791b60448201526064016102b4565b60048101805461ff001916610100179055805460038201546040516001600160a01b039092169181156108fc0291906000818181858888f193505050501580156103e6573d6000803e3d6000fd5b50817f0c875c8d391179c5cf7ad8303d268efd50b8beb78b671f85cd54bfb91eb8ef40826003015460405161041d91815260200190565b60405180910390a25050565b6104316108fb565b60008481526001602081905260409091200154156104825760405162461bcd60e51b815260206004820152600e60248201526d50726f6a6563742065786973747360901b60448201526064016102b4565b6040518060c00160405280846001600160a01b0316815260200183815260200182620151806104b19190610a4c565b6104bb9042610a69565b815260006020808301829052600160408085018290526060948501849052898452818352808420865181546001600160a01b039091166001600160a01b0319909116178155928601519183019190915584015160028201559183015160038084019190915560808401516004909301805460a09095015115156101000261ff00199415159490941661ffff19909516949094179290921790925580549161056183610a7c565b90915550506000848152600160209081526040918290206002015482516001600160a01b038716815291820185905281830152905185917fb5d890eb2df709d2f732ed81f328b444e49c1618ed8d64c53c0a040ec4040e1e919081900360600190a250505050565b6000818152600160205260409020600281015442101561061d5760405162461bcd60e51b815260206004820152600f60248201526e46756e64696e67206f6e676f696e6760881b60448201526064016102b4565b806001015481600301541061065f5760405162461bcd60e51b815260206004820152600860248201526711dbd85b081b595d60c21b60448201526064016102b4565b6000828152600260209081526040808320338452909152902054806106b85760405162461bcd60e51b815260206004820152600f60248201526e27379031b7b73a3934b13aba34b7b760891b60448201526064016102b4565b600083815260026020908152604080832033808552925280832083905551909183156108fc02918491818181858888f193505050501580156106fe573d6000803e3d6000fd5b50604080513381526020810183905284917f7ca5472b7ea78c2c0141c5a12ee6d170cf4ce8ed06be3d22c8252ddfc7a6a2c4910160405180910390a2505050565b6107476108fb565b6107516000610928565b565b6000818152600160205260409020600481015460ff166107ac5760405162461bcd60e51b8152602060048201526014602482015273141c9bda9958dd081b9bdd08185c1c1c9bdd995960621b60448201526064016102b4565b806002015442106107f15760405162461bcd60e51b815260206004820152600f60248201526e119d5b991a5b99c8195e1c1a5c9959608a1b60448201526064016102b4565b6004810154610100900460ff161561083f5760405162461bcd60e51b8152602060048201526011602482015270119d5b991a5b99c818dbdb5c1b195d1959607a1b60448201526064016102b4565b348160030160008282546108539190610a69565b9091555050600082815260026020908152604080832033845290915281208054349290610881908490610a69565b90915550506040805133815234602082015283917fb2ed2e021651f85a4754a44651fc09ac5141bc0329ce4dfe8dd712a5d04a8b39910161041d565b6108c56108fb565b6001600160a01b0381166108ef57604051631e4fbdf760e01b8152600060048201526024016102b4565b6108f881610928565b50565b6000546001600160a01b031633146107515760405163118cdaa760e01b81523360048201526024016102b4565b600080546001600160a01b038381166001600160a01b0319831681178455604051919092169283917f8be0079c531659141344cd1fd0a4f28419497f9722a3daafe3b4186f6b6457e09190a35050565b60006020828403121561098a57600080fd5b5035919050565b80356001600160a01b03811681146109a857600080fd5b919050565b600080600080608085870312156109c357600080fd5b843593506109d360208601610991565b93969395505050506040820135916060013590565b600080604083850312156109fb57600080fd5b82359150610a0b60208401610991565b90509250929050565b600060208284031215610a2657600080fd5b610a2f82610991565b9392505050565b634e487b7160e01b600052601160045260246000fd5b8082028115828204841417610a6357610a63610a36565b92915050565b80820180821115610a6357610a63610a36565b600060018201610a8e57610a8e610a36565b506001019056fea26469706673582212209f2e54fb185abd1cce1a67450b4ea23b6666f90146afbd8acfef56476fc7a89664736f6c63430008140033",
  "linkReferences": {},
  "deployedLinkReferences": {}
}